{
  "contractName": "SWEETS",
  "abi": [
    {
      "inputs": [],
      "stateMutability": "nonpayable",
      "type": "constructor"
    },
    {
      "anonymous": false,
      "inputs": [
        {
          "indexed": true,
          "internalType": "address",
          "name": "owner",
          "type": "address"
        },
        {
          "indexed": true,
          "internalType": "address",
          "name": "approved",
          "type": "address"
        },
        {
          "indexed": true,
          "internalType": "uint256",
          "name": "tokenId",
          "type": "uint256"
        }
      ],
      "name": "Approval",
      "type": "event"
    },
    {
      "anonymous": false,
      "inputs": [
        {
          "indexed": true,
          "internalType": "address",
          "name": "owner",
          "type": "address"
        },
        {
          "indexed": true,
          "internalType": "address",
          "name": "operator",
          "type": "address"
        },
        {
          "indexed": false,
          "internalType": "bool",
          "name": "approved",
          "type": "bool"
        }
      ],
      "name": "ApprovalForAll",
      "type": "event"
    },
    {
      "anonymous": false,
      "inputs": [
        {
          "indexed": true,
          "internalType": "address",
          "name": "previousOwner",
          "type": "address"
        },
        {
          "indexed": true,
          "internalType": "address",
          "name": "newOwner",
          "type": "address"
        }
      ],
      "name": "OwnershipTransferred",
      "type": "event"
    },
    {
      "anonymous": false,
      "inputs": [
        {
          "indexed": true,
          "internalType": "address",
          "name": "from",
          "type": "address"
        },
        {
          "indexed": true,
          "internalType": "address",
          "name": "to",
          "type": "address"
        },
        {
          "indexed": true,
          "internalType": "uint256",
          "name": "tokenId",
          "type": "uint256"
        }
      ],
      "name": "Transfer",
      "type": "event"
    },
    {
      "inputs": [],
      "name": "algorithm",
      "outputs": [
        {
          "internalType": "string",
          "name": "",
          "type": "string"
        }
      ],
      "stateMutability": "view",
      "type": "function"
    },
    {
      "inputs": [
        {
          "internalType": "address",
          "name": "to",
          "type": "address"
        },
        {
          "internalType": "uint256",
          "name": "tokenId",
          "type": "uint256"
        }
      ],
      "name": "approve",
      "outputs": [],
      "stateMutability": "nonpayable",
      "type": "function"
    },
    {
      "inputs": [
        {
          "internalType": "address",
          "name": "owner",
          "type": "address"
        }
      ],
      "name": "balanceOf",
      "outputs": [
        {
          "internalType": "uint256",
          "name": "",
          "type": "uint256"
        }
      ],
      "stateMutability": "view",
      "type": "function"
    },
    {
      "inputs": [
        {
          "internalType": "uint256",
          "name": "tokenId",
          "type": "uint256"
        }
      ],
      "name": "getApproved",
      "outputs": [
        {
          "internalType": "address",
          "name": "",
          "type": "address"
        }
      ],
      "stateMutability": "view",
      "type": "function"
    },
    {
      "inputs": [
        {
          "internalType": "address",
          "name": "owner",
          "type": "address"
        },
        {
          "internalType": "address",
          "name": "operator",
          "type": "address"
        }
      ],
      "name": "isApprovedForAll",
      "outputs": [
        {
          "internalType": "bool",
          "name": "",
          "type": "bool"
        }
      ],
      "stateMutability": "view",
      "type": "function"
    },
    {
      "inputs": [],
      "name": "name",
      "outputs": [
        {
          "internalType": "string",
          "name": "",
          "type": "string"
        }
      ],
      "stateMutability": "view",
      "type": "function"
    },
    {
      "inputs": [],
      "name": "owner",
      "outputs": [
        {
          "internalType": "address",
          "name": "",
          "type": "address"
        }
      ],
      "stateMutability": "view",
      "type": "function"
    },
    {
      "inputs": [
        {
          "internalType": "uint256",
          "name": "tokenId",
          "type": "uint256"
        }
      ],
      "name": "ownerOf",
      "outputs": [
        {
          "internalType": "address",
          "name": "",
          "type": "address"
        }
      ],
      "stateMutability": "view",
      "type": "function"
    },
    {
      "inputs": [],
      "name": "renounceOwnership",
      "outputs": [],
      "stateMutability": "nonpayable",
      "type": "function"
    },
    {
      "inputs": [
        {
          "internalType": "address",
          "name": "from",
          "type": "address"
        },
        {
          "internalType": "address",
          "name": "to",
          "type": "address"
        },
        {
          "internalType": "uint256",
          "name": "tokenId",
          "type": "uint256"
        }
      ],
      "name": "safeTransferFrom",
      "outputs": [],
      "stateMutability": "nonpayable",
      "type": "function"
    },
    {
      "inputs": [
        {
          "internalType": "address",
          "name": "from",
          "type": "address"
        },
        {
          "internalType": "address",
          "name": "to",
          "type": "address"
        },
        {
          "internalType": "uint256",
          "name": "tokenId",
          "type": "uint256"
        },
        {
          "internalType": "bytes",
          "name": "data",
          "type": "bytes"
        }
      ],
      "name": "safeTransferFrom",
      "outputs": [],
      "stateMutability": "nonpayable",
      "type": "function"
    },
    {
      "inputs": [
        {
          "internalType": "address",
          "name": "operator",
          "type": "address"
        },
        {
          "internalType": "bool",
          "name": "approved",
          "type": "bool"
        }
      ],
      "name": "setApprovalForAll",
      "outputs": [],
      "stateMutability": "nonpayable",
      "type": "function"
    },
    {
      "inputs": [
        {
          "internalType": "bytes4",
          "name": "interfaceId",
          "type": "bytes4"
        }
      ],
      "name": "supportsInterface",
      "outputs": [
        {
          "internalType": "bool",
          "name": "",
          "type": "bool"
        }
      ],
      "stateMutability": "view",
      "type": "function"
    },
    {
      "inputs": [],
      "name": "symbol",
      "outputs": [
        {
          "internalType": "string",
          "name": "",
          "type": "string"
        }
      ],
      "stateMutability": "view",
      "type": "function"
    },
    {
      "inputs": [
        {
          "internalType": "uint256",
          "name": "tokenId",
          "type": "uint256"
        }
      ],
      "name": "tokenURI",
      "outputs": [
        {
          "internalType": "string",
          "name": "",
          "type": "string"
        }
      ],
      "stateMutability": "view",
      "type": "function"
    },
    {
      "inputs": [
        {
          "internalType": "address",
          "name": "from",
          "type": "address"
        },
        {
          "internalType": "address",
          "name": "to",
          "type": "address"
        },
        {
          "internalType": "uint256",
          "name": "tokenId",
          "type": "uint256"
        }
      ],
      "name": "transferFrom",
      "outputs": [],
      "stateMutability": "nonpayable",
      "type": "function"
    },
    {
      "inputs": [
        {
          "internalType": "address",
          "name": "newOwner",
          "type": "address"
        }
      ],
      "name": "transferOwnership",
      "outputs": [],
      "stateMutability": "nonpayable",
      "type": "function"
    },
    {
      "inputs": [],
      "name": "mint",
      "outputs": [],
      "stateMutability": "nonpayable",
      "type": "function"
    },
    {
      "inputs": [
        {
          "internalType": "uint256",
          "name": "id",
          "type": "uint256"
        }
      ],
      "name": "ownerMint",
      "outputs": [],
      "stateMutability": "nonpayable",
      "type": "function"
    },
    {
      "inputs": [
        {
          "internalType": "string",
          "name": "algo",
          "type": "string"
        }
      ],
      "name": "setAlgo",
      "outputs": [],
      "stateMutability": "nonpayable",
      "type": "function"
    },
    {
      "inputs": [
        {
          "internalType": "uint256",
          "name": "id",
          "type": "uint256"
        }
      ],
      "name": "getSize",
      "outputs": [
        {
          "internalType": "string",
          "name": "",
          "type": "string"
        }
      ],
      "stateMutability": "view",
      "type": "function"
    },
    {
      "inputs": [
        {
          "internalType": "uint256",
          "name": "id",
          "type": "uint256"
        }
      ],
      "name": "getSurface",
      "outputs": [
        {
          "internalType": "string",
          "name": "",
          "type": "string"
        }
      ],
      "stateMutability": "view",
      "type": "function"
    },
    {
      "inputs": [
        {
          "internalType": "uint256",
          "name": "id",
          "type": "uint256"
        }
      ],
      "name": "getShape",
      "outputs": [
        {
          "internalType": "string",
          "name": "",
          "type": "string"
        }
      ],
      "stateMutability": "view",
      "type": "function"
    },
    {
      "inputs": [
        {
          "internalType": "uint256",
          "name": "id",
          "type": "uint256"
        }
      ],
      "name": "getPalette",
      "outputs": [
        {
          "internalType": "string[4]",
          "name": "",
          "type": "string[4]"
        }
      ],
      "stateMutability": "view",
      "type": "function"
    }
  ],
  "bytecode": "0x60806040526040518060e001604052806040518060400160405280600881526020017f50696c6c6865616400000000000000000000000000000000000000000000000081525081526020016040518060400160405280600681526020017f536d696c6572000000000000000000000000000000000000000000000000000081525081526020016040518060400160405280600881526020017f5370656b7472616c00000000000000000000000000000000000000000000000081525081526020016040518060400160405280600581526020017f48656c697800000000000000000000000000000000000000000000000000000081525081526020016040518060400160405280600981526020017f546573736572616374000000000000000000000000000000000000000000000081525081526020016040518060400160405280600581526020017f546f72757300000000000000000000000000000000000000000000000000000081525081526020016040518060400160405280600781526020017f4f62656c69736b000000000000000000000000000000000000000000000000008152508152506008906007620001bc929190620008c0565b5060405180606001604052806040518060400160405280600681526020017f4e6962626c65000000000000000000000000000000000000000000000000000081525081526020016040518060400160405280600481526020017f426974650000000000000000000000000000000000000000000000000000000081525081526020016040518060400160405280600681526020017f4465766f7572000000000000000000000000000000000000000000000000000081525081525060099060036200028992919062000920565b5060405180606001604052806040518060400160405280600581526020017f687964726f00000000000000000000000000000000000000000000000000000081525081526020016040518060400160405280600681526020017f706c61746564000000000000000000000000000000000000000000000000000081525081526020016040518060400160405280600781526020017f74616374696c6500000000000000000000000000000000000000000000000000815250815250600a9060036200035692919062000920565b506040518061020001604052806040518060400160405280600781526020017f234537343334460000000000000000000000000000000000000000000000000081525081526020016040518060400160405280600781526020017f234537393733440000000000000000000000000000000000000000000000000081525081526020016040518060400160405280600781526020017f234537444334450000000000000000000000000000000000000000000000000081525081526020016040518060400160405280600781526020017f233543453735440000000000000000000000000000000000000000000000000081525081526020016040518060400160405280600781526020017f233239383145370000000000000000000000000000000000000000000000000081525081526020016040518060400160405280600781526020017f233544323145370000000000000000000000000000000000000000000000000081525081526020016040518060400160405280600781526020017f234537373745340000000000000000000000000000000000000000000000000081525081526020016040518060400160405280600781526020017f234537453745370000000000000000000000000000000000000000000000000081525081526020016040518060400160405280600781526020017f233331323632340000000000000000000000000000000000000000000000000081525081526020016040518060400160405280600781526020017f234537393639460000000000000000000000000000000000000000000000000081525081526020016040518060400160405280600781526020017f234537423237370000000000000000000000000000000000000000000000000081525081526020016040518060400160405280600781526020017f234537444438460000000000000000000000000000000000000000000000000081525081526020016040518060400160405280600781526020017f233843453743330000000000000000000000000000000000000000000000000081525081526020016040518060400160405280600781526020017f233837423245370000000000000000000000000000000000000000000000000081525081526020016040518060400160405280600781526020017f234130383245370000000000000000000000000000000000000000000000000081525081526020016040518060400160405280600781526020017f2345344237453700000000000000000000000000000000000000000000000000815250815250600b9060106200072392919062000980565b503480156200073157600080fd5b506040518060400160405280600681526020017f53574545545300000000000000000000000000000000000000000000000000008152506040518060400160405280600681526020017f53574545545300000000000000000000000000000000000000000000000000008152508160009081620007af919062000ce7565b508060019081620007c1919062000ce7565b505050620007e4620007d8620007f260201b60201c565b620007fa60201b60201c565b600160078190555062000dce565b600033905090565b6000600660009054906101000a900473ffffffffffffffffffffffffffffffffffffffff16905081600660006101000a81548173ffffffffffffffffffffffffffffffffffffffff021916908373ffffffffffffffffffffffffffffffffffffffff1602179055508173ffffffffffffffffffffffffffffffffffffffff168173ffffffffffffffffffffffffffffffffffffffff167f8be0079c531659141344cd1fd0a4f28419497f9722a3daafe3b4186f6b6457e060405160405180910390a35050565b8280548282559060005260206000209081019282156200090d579160200282015b828111156200090c578251829081620008fb919062000ce7565b5091602001919060010190620008e1565b5b5090506200091c9190620009e0565b5090565b8280548282559060005260206000209081019282156200096d579160200282015b828111156200096c5782518290816200095b919062000ce7565b509160200191906001019062000941565b5b5090506200097c9190620009e0565b5090565b828054828255906000526020600020908101928215620009cd579160200282015b82811115620009cc578251829081620009bb919062000ce7565b5091602001919060010190620009a1565b5b509050620009dc9190620009e0565b5090565b5b8082111562000a045760008181620009fa919062000a08565b50600101620009e1565b5090565b50805462000a169062000ad6565b6000825580601f1062000a2a575062000a4b565b601f01602090049060005260206000209081019062000a4a919062000a4e565b5b50565b5b8082111562000a6957600081600090555060010162000a4f565b5090565b600081519050919050565b7f4e487b7100000000000000000000000000000000000000000000000000000000600052604160045260246000fd5b7f4e487b7100000000000000000000000000000000000000000000000000000000600052602260045260246000fd5b6000600282049050600182168062000aef57607f821691505b60208210810362000b055762000b0462000aa7565b5b50919050565b60008190508160005260206000209050919050565b60006020601f8301049050919050565b600082821b905092915050565b60006008830262000b6f7fffffffffffffffffffffffffffffffffffffffffffffffffffffffffffffffff8262000b30565b62000b7b868362000b30565b95508019841693508086168417925050509392505050565b6000819050919050565b6000819050919050565b600062000bc862000bc262000bbc8462000b93565b62000b9d565b62000b93565b9050919050565b6000819050919050565b62000be48362000ba7565b62000bfc62000bf38262000bcf565b84845462000b3d565b825550505050565b600090565b62000c1362000c04565b62000c2081848462000bd9565b505050565b5b8181101562000c485762000c3c60008262000c09565b60018101905062000c26565b5050565b601f82111562000c975762000c618162000b0b565b62000c6c8462000b20565b8101602085101562000c7c578190505b62000c9462000c8b8562000b20565b83018262000c25565b50505b505050565b600082821c905092915050565b600062000cbc6000198460080262000c9c565b1980831691505092915050565b600062000cd7838362000ca9565b9150826002028217905092915050565b62000cf28262000a6d565b67ffffffffffffffff81111562000d0e5762000d0d62000a78565b5b62000d1a825462000ad6565b62000d2782828562000c4c565b600060209050601f83116001811462000d5f576000841562000d4a578287015190505b62000d56858262000cc9565b86555062000dc6565b601f19841662000d6f8662000b0b565b60005b8281101562000d995784890151825560018201915060208501945060208101905062000d72565b8683101562000db9578489015162000db5601f89168262000ca9565b8355505b6001600288020188555050505b505050505050565b613a2a8062000dde6000396000f3fe608060405234801561001057600080fd5b50600436106101585760003560e01c8063505e570a116100c3578063a22cb4651161007c578063a22cb465146103d9578063b88d4fde146103f5578063c87b56dd14610411578063e985e9c514610441578063f19e75d414610471578063f2fde38b1461048d57610158565b8063505e570a146103035780636352211e1461033357806370a0823114610363578063715018a6146103935780638da5cb5b1461039d57806395d89b41146103bb57610158565b806311ad80471161011557806311ad8047146102435780631249c58b1461027357806322ced7211461027d57806323b872dd146102ad5780632e58ca46146102c957806342842e0e146102e757610158565b806301ffc9a71461015d578063023c23db1461018d57806306fdde03146101bd5780630764da1d146101db578063081812fc146101f7578063095ea7b314610227575b600080fd5b610177600480360381019061017291906125c2565b6104a9565b604051610184919061260a565b60405180910390f35b6101a760048036038101906101a2919061265b565b61058b565b6040516101b49190612718565b60405180910390f35b6101c56106a5565b6040516101d29190612718565b60405180910390f35b6101f560048036038101906101f0919061286f565b610737565b005b610211600480360381019061020c919061265b565b610752565b60405161021e91906128f9565b60405180910390f35b610241600480360381019061023c9190612940565b610798565b005b61025d6004803603810190610258919061265b565b6108af565b60405161026a9190612718565b60405180910390f35b61027b6109c9565b005b6102976004803603810190610292919061265b565b610a54565b6040516102a49190612718565b60405180910390f35b6102c760048036038101906102c29190612980565b610b6e565b005b6102d1610bce565b6040516102de9190612718565b60405180910390f35b61030160048036038101906102fc9190612980565b610c5c565b005b61031d6004803603810190610318919061265b565b610c7c565b60405161032a9190612ad3565b60405180910390f35b61034d6004803603810190610348919061265b565b611149565b60405161035a91906128f9565b60405180910390f35b61037d60048036038101906103789190612af5565b6111fa565b60405161038a9190612b31565b60405180910390f35b61039b6112b1565b005b6103a56112c5565b6040516103b291906128f9565b60405180910390f35b6103c36112ef565b6040516103d09190612718565b60405180910390f35b6103f360048036038101906103ee9190612b78565b611381565b005b61040f600480360381019061040a9190612c59565b611397565b005b61042b6004803603810190610426919061265b565b6113f9565b6040516104389190612718565b60405180910390f35b61045b60048036038101906104569190612cdc565b611461565b604051610468919061260a565b60405180910390f35b61048b6004803603810190610486919061265b565b6114f5565b005b6104a760048036038101906104a29190612af5565b61157b565b005b60007f80ac58cd000000000000000000000000000000000000000000000000000000007bffffffffffffffffffffffffffffffffffffffffffffffffffffffff1916827bffffffffffffffffffffffffffffffffffffffffffffffffffffffff1916148061057457507f5b5e139f000000000000000000000000000000000000000000000000000000007bffffffffffffffffffffffffffffffffffffffffffffffffffffffff1916827bffffffffffffffffffffffffffffffffffffffffffffffffffffffff1916145b806105845750610583826115fe565b5b9050919050565b606061069e826040518060400160405280600481526020017f73697a65000000000000000000000000000000000000000000000000000000008152506009805480602002602001604051908101604052809291908181526020016000905b8282101561069557838290600052602060002001805461060890612d4b565b80601f016020809104026020016040519081016040528092919081815260200182805461063490612d4b565b80156106815780601f1061065657610100808354040283529160200191610681565b820191906000526020600020905b81548152906001019060200180831161066457829003601f168201915b5050505050815260200190600101906105e9565b50505050611668565b9050919050565b6060600080546106b490612d4b565b80601f01602080910402602001604051908101604052809291908181526020018280546106e090612d4b565b801561072d5780601f106107025761010080835404028352916020019161072d565b820191906000526020600020905b81548152906001019060200180831161071057829003601f168201915b5050505050905090565b61073f6116d3565b80600c908161074e9190612f28565b5050565b600061075d82611751565b6004600083815260200190815260200160002060009054906101000a900473ffffffffffffffffffffffffffffffffffffffff169050919050565b60006107a382611149565b90508073ffffffffffffffffffffffffffffffffffffffff168373ffffffffffffffffffffffffffffffffffffffff1603610813576040517f08c379a000000000000000000000000000000000000000000000000000000000815260040161080a9061306c565b60405180910390fd5b8073ffffffffffffffffffffffffffffffffffffffff1661083261179c565b73ffffffffffffffffffffffffffffffffffffffff16148061086157506108608161085b61179c565b611461565b5b6108a0576040517f08c379a0000000000000000000000000000000000000000000000000000000008152600401610897906130fe565b60405180910390fd5b6108aa83836117a4565b505050565b60606109c2826040518060400160405280600581526020017f73686170650000000000000000000000000000000000000000000000000000008152506009805480602002602001604051908101604052809291908181526020016000905b828210156109b957838290600052602060002001805461092c90612d4b565b80601f016020809104026020016040519081016040528092919081815260200182805461095890612d4b565b80156109a55780601f1061097a576101008083540402835291602001916109a5565b820191906000526020600020905b81548152906001019060200180831161098857829003601f168201915b50505050508152602001906001019061090d565b50505050611668565b9050919050565b600260075403610a0e576040517f08c379a0000000000000000000000000000000000000000000000000000000008152600401610a059061316a565b60405180910390fd5b6002600781905550611194600d5410610a2657600080fd5b600d6000815480929190610a39906131b9565b9190505550610a4a33600d5461185d565b6001600781905550565b6060610b67826040518060400160405280600781526020017f73757266616365000000000000000000000000000000000000000000000000008152506009805480602002602001604051908101604052809291908181526020016000905b82821015610b5e578382906000526020600020018054610ad190612d4b565b80601f0160208091040260200160405190810160405280929190818152602001828054610afd90612d4b565b8015610b4a5780601f10610b1f57610100808354040283529160200191610b4a565b820191906000526020600020905b815481529060010190602001808311610b2d57829003601f168201915b505050505081526020019060010190610ab2565b50505050611668565b9050919050565b610b7f610b7961179c565b8261187b565b610bbe576040517f08c379a0000000000000000000000000000000000000000000000000000000008152600401610bb590613273565b60405180910390fd5b610bc9838383611910565b505050565b600c8054610bdb90612d4b565b80601f0160208091040260200160405190810160405280929190818152602001828054610c0790612d4b565b8015610c545780601f10610c2957610100808354040283529160200191610c54565b820191906000526020600020905b815481529060010190602001808311610c3757829003601f168201915b505050505081565b610c7783838360405180602001604052806000815250611397565b505050565b610c8461252f565b610c8c61252f565b610d9d836040518060400160405280600781526020017f636f6c6f72203000000000000000000000000000000000000000000000000000815250600b805480602002602001604051908101604052809291908181526020016000905b82821015610d94578382906000526020600020018054610d0790612d4b565b80601f0160208091040260200160405190810160405280929190818152602001828054610d3390612d4b565b8015610d805780601f10610d5557610100808354040283529160200191610d80565b820191906000526020600020905b815481529060010190602001808311610d6357829003601f168201915b505050505081526020019060010190610ce8565b50505050611668565b81600060048110610db157610db0613293565b5b6020020181905250610eca836040518060400160405280600781526020017f636f6c6f72203100000000000000000000000000000000000000000000000000815250600b805480602002602001604051908101604052809291908181526020016000905b82821015610ec1578382906000526020600020018054610e3490612d4b565b80601f0160208091040260200160405190810160405280929190818152602001828054610e6090612d4b565b8015610ead5780601f10610e8257610100808354040283529160200191610ead565b820191906000526020600020905b815481529060010190602001808311610e9057829003601f168201915b505050505081526020019060010190610e15565b50505050611668565b81600160048110610ede57610edd613293565b5b6020020181905250610ff7836040518060400160405280600781526020017f636f6c6f72203200000000000000000000000000000000000000000000000000815250600b805480602002602001604051908101604052809291908181526020016000905b82821015610fee578382906000526020600020018054610f6190612d4b565b80601f0160208091040260200160405190810160405280929190818152602001828054610f8d90612d4b565b8015610fda5780601f10610faf57610100808354040283529160200191610fda565b820191906000526020600020905b815481529060010190602001808311610fbd57829003601f168201915b505050505081526020019060010190610f42565b50505050611668565b8160026004811061100b5761100a613293565b5b6020020181905250611124836040518060400160405280600781526020017f636f6c6f72203300000000000000000000000000000000000000000000000000815250600b805480602002602001604051908101604052809291908181526020016000905b8282101561111b57838290600052602060002001805461108e90612d4b565b80601f01602080910402602001604051908101604052809291908181526020018280546110ba90612d4b565b80156111075780601f106110dc57610100808354040283529160200191611107565b820191906000526020600020905b8154815290600101906020018083116110ea57829003601f168201915b50505050508152602001906001019061106f565b50505050611668565b8160036004811061113857611137613293565b5b602002018190525080915050919050565b6000806002600084815260200190815260200160002060009054906101000a900473ffffffffffffffffffffffffffffffffffffffff169050600073ffffffffffffffffffffffffffffffffffffffff168173ffffffffffffffffffffffffffffffffffffffff16036111f1576040517f08c379a00000000000000000000000000000000000000000000000000000000081526004016111e89061330e565b60405180910390fd5b80915050919050565b60008073ffffffffffffffffffffffffffffffffffffffff168273ffffffffffffffffffffffffffffffffffffffff160361126a576040517f08c379a0000000000000000000000000000000000000000000000000000000008152600401611261906133a0565b60405180910390fd5b600360008373ffffffffffffffffffffffffffffffffffffffff1673ffffffffffffffffffffffffffffffffffffffff168152602001908152602001600020549050919050565b6112b96116d3565b6112c36000611b76565b565b6000600660009054906101000a900473ffffffffffffffffffffffffffffffffffffffff16905090565b6060600180546112fe90612d4b565b80601f016020809104026020016040519081016040528092919081815260200182805461132a90612d4b565b80156113775780601f1061134c57610100808354040283529160200191611377565b820191906000526020600020905b81548152906001019060200180831161135a57829003601f168201915b5050505050905090565b61139361138c61179c565b8383611c3c565b5050565b6113a86113a261179c565b8361187b565b6113e7576040517f08c379a00000000000000000000000000000000000000000000000000000000081526004016113de90613273565b60405180910390fd5b6113f384848484611da8565b50505050565b606061140482611751565b600061140e611e04565b9050600081511161142e5760405180602001604052806000815250611459565b8061143884611e1b565b6040516020016114499291906133fc565b6040516020818303038152906040525b915050919050565b6000600560008473ffffffffffffffffffffffffffffffffffffffff1673ffffffffffffffffffffffffffffffffffffffff16815260200190815260200160002060008373ffffffffffffffffffffffffffffffffffffffff1673ffffffffffffffffffffffffffffffffffffffff16815260200190815260200160002060009054906101000a900460ff16905092915050565b60026007540361153a576040517f08c379a00000000000000000000000000000000000000000000000000000000081526004016115319061316a565b60405180910390fd5b600260078190555061154a6116d3565b6111948111801561155d57506113888111155b61156657600080fd5b611570338261185d565b600160078190555050565b6115836116d3565b600073ffffffffffffffffffffffffffffffffffffffff168173ffffffffffffffffffffffffffffffffffffffff16036115f2576040517f08c379a00000000000000000000000000000000000000000000000000000000081526004016115e990613492565b60405180910390fd5b6115fb81611b76565b50565b60007f01ffc9a7000000000000000000000000000000000000000000000000000000007bffffffffffffffffffffffffffffffffffffffffffffffffffffffff1916827bffffffffffffffffffffffffffffffffffffffffffffffffffffffff1916149050919050565b606060008361167686611f7b565b6040516020016116879291906133fc565b6040516020818303038152906040528051906020012060001c9050828351826116b091906134e1565b815181106116c1576116c0613293565b5b60200260200101519150509392505050565b6116db61179c565b73ffffffffffffffffffffffffffffffffffffffff166116f96112c5565b73ffffffffffffffffffffffffffffffffffffffff161461174f576040517f08c379a00000000000000000000000000000000000000000000000000000000081526004016117469061355e565b60405180910390fd5b565b61175a816120db565b611799576040517f08c379a00000000000000000000000000000000000000000000000000000000081526004016117909061330e565b60405180910390fd5b50565b600033905090565b816004600083815260200190815260200160002060006101000a81548173ffffffffffffffffffffffffffffffffffffffff021916908373ffffffffffffffffffffffffffffffffffffffff160217905550808273ffffffffffffffffffffffffffffffffffffffff1661181783611149565b73ffffffffffffffffffffffffffffffffffffffff167f8c5be1e5ebec7d5bd14f71427d1e84f3dd0314c0f7b2291e5b200ac8c7c3b92560405160405180910390a45050565b611877828260405180602001604052806000815250612147565b5050565b60008061188783611149565b90508073ffffffffffffffffffffffffffffffffffffffff168473ffffffffffffffffffffffffffffffffffffffff1614806118c957506118c88185611461565b5b8061190757508373ffffffffffffffffffffffffffffffffffffffff166118ef84610752565b73ffffffffffffffffffffffffffffffffffffffff16145b91505092915050565b8273ffffffffffffffffffffffffffffffffffffffff1661193082611149565b73ffffffffffffffffffffffffffffffffffffffff1614611986576040517f08c379a000000000000000000000000000000000000000000000000000000000815260040161197d906135f0565b60405180910390fd5b600073ffffffffffffffffffffffffffffffffffffffff168273ffffffffffffffffffffffffffffffffffffffff16036119f5576040517f08c379a00000000000000000000000000000000000000000000000000000000081526004016119ec90613682565b60405180910390fd5b611a008383836121a2565b611a0b6000826117a4565b6001600360008573ffffffffffffffffffffffffffffffffffffffff1673ffffffffffffffffffffffffffffffffffffffff1681526020019081526020016000206000828254611a5b91906136a2565b925050819055506001600360008473ffffffffffffffffffffffffffffffffffffffff1673ffffffffffffffffffffffffffffffffffffffff1681526020019081526020016000206000828254611ab291906136d6565b92505081905550816002600083815260200190815260200160002060006101000a81548173ffffffffffffffffffffffffffffffffffffffff021916908373ffffffffffffffffffffffffffffffffffffffff160217905550808273ffffffffffffffffffffffffffffffffffffffff168473ffffffffffffffffffffffffffffffffffffffff167fddf252ad1be2c89b69c2b068fc378daa952ba7f163c4a11628f55a4df523b3ef60405160405180910390a4611b718383836121a7565b505050565b6000600660009054906101000a900473ffffffffffffffffffffffffffffffffffffffff16905081600660006101000a81548173ffffffffffffffffffffffffffffffffffffffff021916908373ffffffffffffffffffffffffffffffffffffffff1602179055508173ffffffffffffffffffffffffffffffffffffffff168173ffffffffffffffffffffffffffffffffffffffff167f8be0079c531659141344cd1fd0a4f28419497f9722a3daafe3b4186f6b6457e060405160405180910390a35050565b8173ffffffffffffffffffffffffffffffffffffffff168373ffffffffffffffffffffffffffffffffffffffff1603611caa576040517f08c379a0000000000000000000000000000000000000000000000000000000008152600401611ca190613756565b60405180910390fd5b80600560008573ffffffffffffffffffffffffffffffffffffffff1673ffffffffffffffffffffffffffffffffffffffff16815260200190815260200160002060008473ffffffffffffffffffffffffffffffffffffffff1673ffffffffffffffffffffffffffffffffffffffff16815260200190815260200160002060006101000a81548160ff0219169083151502179055508173ffffffffffffffffffffffffffffffffffffffff168373ffffffffffffffffffffffffffffffffffffffff167f17307eab39ab6107e8899845ad3d59bd9653f200f220920489ca2b5937696c3183604051611d9b919061260a565b60405180910390a3505050565b611db3848484611910565b611dbf848484846121ac565b611dfe576040517f08c379a0000000000000000000000000000000000000000000000000000000008152600401611df5906137e8565b60405180910390fd5b50505050565b606060405180602001604052806000815250905090565b606060008203611e62576040518060400160405280600181526020017f30000000000000000000000000000000000000000000000000000000000000008152509050611f76565b600082905060005b60008214611e94578080611e7d906131b9565b915050600a82611e8d9190613808565b9150611e6a565b60008167ffffffffffffffff811115611eb057611eaf612744565b5b6040519080825280601f01601f191660200182016040528015611ee25781602001600182028036833780820191505090505b5090505b60008514611f6f57600182611efb91906136a2565b9150600a85611f0a91906134e1565b6030611f1691906136d6565b60f81b818381518110611f2c57611f2b613293565b5b60200101907effffffffffffffffffffffffffffffffffffffffffffffffffffffffffffff1916908160001a905350600a85611f689190613808565b9450611ee6565b8093505050505b919050565b606060008203611fc2576040518060400160405280600181526020017f300000000000000000000000000000000000000000000000000000000000000081525090506120d6565b600082905060005b60008214611ff4578080611fdd906131b9565b915050600a82611fed9190613808565b9150611fca565b60008167ffffffffffffffff8111156120105761200f612744565b5b6040519080825280601f01601f1916602001820160405280156120425781602001600182028036833780820191505090505b5090505b600085146120cf5760018261205b91906136a2565b9150600a8561206a91906134e1565b603061207691906136d6565b60f81b81838151811061208c5761208b613293565b5b60200101907effffffffffffffffffffffffffffffffffffffffffffffffffffffffffffff1916908160001a905350600a856120c89190613808565b9450612046565b8093505050505b919050565b60008073ffffffffffffffffffffffffffffffffffffffff166002600084815260200190815260200160002060009054906101000a900473ffffffffffffffffffffffffffffffffffffffff1673ffffffffffffffffffffffffffffffffffffffff1614159050919050565b6121518383612333565b61215e60008484846121ac565b61219d576040517f08c379a0000000000000000000000000000000000000000000000000000000008152600401612194906137e8565b60405180910390fd5b505050565b505050565b505050565b60006121cd8473ffffffffffffffffffffffffffffffffffffffff1661250c565b15612326578373ffffffffffffffffffffffffffffffffffffffff1663150b7a026121f661179c565b8786866040518563ffffffff1660e01b8152600401612218949392919061388e565b6020604051808303816000875af192505050801561225457506040513d601f19601f8201168201806040525081019061225191906138ef565b60015b6122d6573d8060008114612284576040519150601f19603f3d011682016040523d82523d6000602084013e612289565b606091505b5060008151036122ce576040517f08c379a00000000000000000000000000000000000000000000000000000000081526004016122c5906137e8565b60405180910390fd5b805181602001fd5b63150b7a0260e01b7bffffffffffffffffffffffffffffffffffffffffffffffffffffffff1916817bffffffffffffffffffffffffffffffffffffffffffffffffffffffff19161491505061232b565b600190505b949350505050565b600073ffffffffffffffffffffffffffffffffffffffff168273ffffffffffffffffffffffffffffffffffffffff16036123a2576040517f08c379a000000000000000000000000000000000000000000000000000000000815260040161239990613968565b60405180910390fd5b6123ab816120db565b156123eb576040517f08c379a00000000000000000000000000000000000000000000000000000000081526004016123e2906139d4565b60405180910390fd5b6123f7600083836121a2565b6001600360008473ffffffffffffffffffffffffffffffffffffffff1673ffffffffffffffffffffffffffffffffffffffff168152602001908152602001600020600082825461244791906136d6565b92505081905550816002600083815260200190815260200160002060006101000a81548173ffffffffffffffffffffffffffffffffffffffff021916908373ffffffffffffffffffffffffffffffffffffffff160217905550808273ffffffffffffffffffffffffffffffffffffffff16600073ffffffffffffffffffffffffffffffffffffffff167fddf252ad1be2c89b69c2b068fc378daa952ba7f163c4a11628f55a4df523b3ef60405160405180910390a4612508600083836121a7565b5050565b6000808273ffffffffffffffffffffffffffffffffffffffff163b119050919050565b60405180608001604052806004905b606081526020019060019003908161253e5790505090565b6000604051905090565b600080fd5b600080fd5b60007fffffffff0000000000000000000000000000000000000000000000000000000082169050919050565b61259f8161256a565b81146125aa57600080fd5b50565b6000813590506125bc81612596565b92915050565b6000602082840312156125d8576125d7612560565b5b60006125e6848285016125ad565b91505092915050565b60008115159050919050565b612604816125ef565b82525050565b600060208201905061261f60008301846125fb565b92915050565b6000819050919050565b61263881612625565b811461264357600080fd5b50565b6000813590506126558161262f565b92915050565b60006020828403121561267157612670612560565b5b600061267f84828501612646565b91505092915050565b600081519050919050565b600082825260208201905092915050565b60005b838110156126c25780820151818401526020810190506126a7565b60008484015250505050565b6000601f19601f8301169050919050565b60006126ea82612688565b6126f48185612693565b93506127048185602086016126a4565b61270d816126ce565b840191505092915050565b6000602082019050818103600083015261273281846126df565b905092915050565b600080fd5b600080fd5b7f4e487b7100000000000000000000000000000000000000000000000000000000600052604160045260246000fd5b61277c826126ce565b810181811067ffffffffffffffff8211171561279b5761279a612744565b5b80604052505050565b60006127ae612556565b90506127ba8282612773565b919050565b600067ffffffffffffffff8211156127da576127d9612744565b5b6127e3826126ce565b9050602081019050919050565b82818337600083830152505050565b600061281261280d846127bf565b6127a4565b90508281526020810184848401111561282e5761282d61273f565b5b6128398482856127f0565b509392505050565b600082601f8301126128565761285561273a565b5b81356128668482602086016127ff565b91505092915050565b60006020828403121561288557612884612560565b5b600082013567ffffffffffffffff8111156128a3576128a2612565565b5b6128af84828501612841565b91505092915050565b600073ffffffffffffffffffffffffffffffffffffffff82169050919050565b60006128e3826128b8565b9050919050565b6128f3816128d8565b82525050565b600060208201905061290e60008301846128ea565b92915050565b61291d816128d8565b811461292857600080fd5b50565b60008135905061293a81612914565b92915050565b6000806040838503121561295757612956612560565b5b60006129658582860161292b565b925050602061297685828601612646565b9150509250929050565b60008060006060848603121561299957612998612560565b5b60006129a78682870161292b565b93505060206129b88682870161292b565b92505060406129c986828701612646565b9150509250925092565b600060049050919050565b600081905092915050565b6000819050919050565b600082825260208201905092915050565b6000612a0f82612688565b612a1981856129f3565b9350612a298185602086016126a4565b612a32816126ce565b840191505092915050565b6000612a498383612a04565b905092915050565b6000602082019050919050565b6000612a69826129d3565b612a7381856129de565b935083602082028501612a85856129e9565b8060005b85811015612ac15784840389528151612aa28582612a3d565b9450612aad83612a51565b925060208a01995050600181019050612a89565b50829750879550505050505092915050565b60006020820190508181036000830152612aed8184612a5e565b905092915050565b600060208284031215612b0b57612b0a612560565b5b6000612b198482850161292b565b91505092915050565b612b2b81612625565b82525050565b6000602082019050612b466000830184612b22565b92915050565b612b55816125ef565b8114612b6057600080fd5b50565b600081359050612b7281612b4c565b92915050565b60008060408385031215612b8f57612b8e612560565b5b6000612b9d8582860161292b565b9250506020612bae85828601612b63565b9150509250929050565b600067ffffffffffffffff821115612bd357612bd2612744565b5b612bdc826126ce565b9050602081019050919050565b6000612bfc612bf784612bb8565b6127a4565b905082815260208101848484011115612c1857612c1761273f565b5b612c238482856127f0565b509392505050565b600082601f830112612c4057612c3f61273a565b5b8135612c50848260208601612be9565b91505092915050565b60008060008060808587031215612c7357612c72612560565b5b6000612c818782880161292b565b9450506020612c928782880161292b565b9350506040612ca387828801612646565b925050606085013567ffffffffffffffff811115612cc457612cc3612565565b5b612cd087828801612c2b565b91505092959194509250565b60008060408385031215612cf357612cf2612560565b5b6000612d018582860161292b565b9250506020612d128582860161292b565b9150509250929050565b7f4e487b7100000000000000000000000000000000000000000000000000000000600052602260045260246000fd5b60006002820490506001821680612d6357607f821691505b602082108103612d7657612d75612d1c565b5b50919050565b60008190508160005260206000209050919050565b60006020601f8301049050919050565b600082821b905092915050565b600060088302612dde7fffffffffffffffffffffffffffffffffffffffffffffffffffffffffffffffff82612da1565b612de88683612da1565b95508019841693508086168417925050509392505050565b6000819050919050565b6000612e25612e20612e1b84612625565b612e00565b612625565b9050919050565b6000819050919050565b612e3f83612e0a565b612e53612e4b82612e2c565b848454612dae565b825550505050565b600090565b612e68612e5b565b612e73818484612e36565b505050565b5b81811015612e9757612e8c600082612e60565b600181019050612e79565b5050565b601f821115612edc57612ead81612d7c565b612eb684612d91565b81016020851015612ec5578190505b612ed9612ed185612d91565b830182612e78565b50505b505050565b600082821c905092915050565b6000612eff60001984600802612ee1565b1980831691505092915050565b6000612f188383612eee565b9150826002028217905092915050565b612f3182612688565b67ffffffffffffffff811115612f4a57612f49612744565b5b612f548254612d4b565b612f5f828285612e9b565b600060209050601f831160018114612f925760008415612f80578287015190505b612f8a8582612f0c565b865550612ff2565b601f198416612fa086612d7c565b60005b82811015612fc857848901518255600182019150602085019450602081019050612fa3565b86831015612fe55784890151612fe1601f891682612eee565b8355505b6001600288020188555050505b505050505050565b7f4552433732313a20617070726f76616c20746f2063757272656e74206f776e6560008201527f7200000000000000000000000000000000000000000000000000000000000000602082015250565b6000613056602183612693565b915061306182612ffa565b604082019050919050565b6000602082019050818103600083015261308581613049565b9050919050565b7f4552433732313a20617070726f76652063616c6c6572206973206e6f7420746f60008201527f6b656e206f776e6572206e6f7220617070726f76656420666f7220616c6c0000602082015250565b60006130e8603e83612693565b91506130f38261308c565b604082019050919050565b60006020820190508181036000830152613117816130db565b9050919050565b7f5265656e7472616e637947756172643a207265656e7472616e742063616c6c00600082015250565b6000613154601f83612693565b915061315f8261311e565b602082019050919050565b6000602082019050818103600083015261318381613147565b9050919050565b7f4e487b7100000000000000000000000000000000000000000000000000000000600052601160045260246000fd5b60006131c482612625565b91507fffffffffffffffffffffffffffffffffffffffffffffffffffffffffffffffff82036131f6576131f561318a565b5b600182019050919050565b7f4552433732313a2063616c6c6572206973206e6f7420746f6b656e206f776e6560008201527f72206e6f7220617070726f766564000000000000000000000000000000000000602082015250565b600061325d602e83612693565b915061326882613201565b604082019050919050565b6000602082019050818103600083015261328c81613250565b9050919050565b7f4e487b7100000000000000000000000000000000000000000000000000000000600052603260045260246000fd5b7f4552433732313a20696e76616c696420746f6b656e2049440000000000000000600082015250565b60006132f8601883612693565b9150613303826132c2565b602082019050919050565b60006020820190508181036000830152613327816132eb565b9050919050565b7f4552433732313a2061646472657373207a65726f206973206e6f74206120766160008201527f6c6964206f776e65720000000000000000000000000000000000000000000000602082015250565b600061338a602983612693565b91506133958261332e565b604082019050919050565b600060208201905081810360008301526133b98161337d565b9050919050565b600081905092915050565b60006133d682612688565b6133e081856133c0565b93506133f08185602086016126a4565b80840191505092915050565b600061340882856133cb565b915061341482846133cb565b91508190509392505050565b7f4f776e61626c653a206e6577206f776e657220697320746865207a65726f206160008201527f6464726573730000000000000000000000000000000000000000000000000000602082015250565b600061347c602683612693565b915061348782613420565b604082019050919050565b600060208201905081810360008301526134ab8161346f565b9050919050565b7f4e487b7100000000000000000000000000000000000000000000000000000000600052601260045260246000fd5b60006134ec82612625565b91506134f783612625565b925082613507576135066134b2565b5b828206905092915050565b7f4f776e61626c653a2063616c6c6572206973206e6f7420746865206f776e6572600082015250565b6000613548602083612693565b915061355382613512565b602082019050919050565b600060208201905081810360008301526135778161353b565b9050919050565b7f4552433732313a207472616e736665722066726f6d20696e636f72726563742060008201527f6f776e6572000000000000000000000000000000000000000000000000000000602082015250565b60006135da602583612693565b91506135e58261357e565b604082019050919050565b60006020820190508181036000830152613609816135cd565b9050919050565b7f4552433732313a207472616e7366657220746f20746865207a65726f2061646460008201527f7265737300000000000000000000000000000000000000000000000000000000602082015250565b600061366c602483612693565b915061367782613610565b604082019050919050565b6000602082019050818103600083015261369b8161365f565b9050919050565b60006136ad82612625565b91506136b883612625565b92508282039050818111156136d0576136cf61318a565b5b92915050565b60006136e182612625565b91506136ec83612625565b92508282019050808211156137045761370361318a565b5b92915050565b7f4552433732313a20617070726f766520746f2063616c6c657200000000000000600082015250565b6000613740601983612693565b915061374b8261370a565b602082019050919050565b6000602082019050818103600083015261376f81613733565b9050919050565b7f4552433732313a207472616e7366657220746f206e6f6e20455243373231526560008201527f63656976657220696d706c656d656e7465720000000000000000000000000000602082015250565b60006137d2603283612693565b91506137dd82613776565b604082019050919050565b60006020820190508181036000830152613801816137c5565b9050919050565b600061381382612625565b915061381e83612625565b92508261382e5761382d6134b2565b5b828204905092915050565b600081519050919050565b600082825260208201905092915050565b600061386082613839565b61386a8185613844565b935061387a8185602086016126a4565b613883816126ce565b840191505092915050565b60006080820190506138a360008301876128ea565b6138b060208301866128ea565b6138bd6040830185612b22565b81810360608301526138cf8184613855565b905095945050505050565b6000815190506138e981612596565b92915050565b60006020828403121561390557613904612560565b5b6000613913848285016138da565b91505092915050565b7f4552433732313a206d696e7420746f20746865207a65726f2061646472657373600082015250565b6000613952602083612693565b915061395d8261391c565b602082019050919050565b6000602082019050818103600083015261398181613945565b9050919050565b7f4552433732313a20746f6b656e20616c7265616479206d696e74656400000000600082015250565b60006139be601c83612693565b91506139c982613988565b602082019050919050565b600060208201905081810360008301526139ed816139b1565b905091905056fea2646970667358221220b333823022fadc77e9363ffbc920bb7e343b6dbe8f07e46e568e6642b63565d064736f6c63430008110033",
  "immutableReferences": {},
  "source": "// SPDX-License-Identifier: MIT\npragma solidity ^0.8.13;\n\nimport \"@openzeppelin/contracts/token/ERC721/ERC721.sol\";\nimport \"@openzeppelin/contracts/access/Ownable.sol\";\nimport \"@openzeppelin/contracts/security/ReentrancyGuard.sol\";\n\ncontract SWEETS is ERC721, Ownable, ReentrancyGuard {\n\n        string[] private shapes = [\n                \"Pillhead\",\n                \"Smiler\",\n                \"Spektral\",\n                \"Helix\",\n                \"Tesseract\",\n                \"Torus\",\n                \"Obelisk\"\n        ];\n\n        string[] private sizes = [\n                \"Nibble\",\n                \"Bite\",\n                \"Devour\"\n        ];\n\n        string[] private surfaces = [\n                \"hydro\",\n                \"plated\",\n                \"tactile\"\n        ];\n\n        string[] private colors = [\n                \"#E7434F\",\n                \"#E7973D\",\n                \"#E7DC4E\",\n                \"#5CE75D\",\n                \"#2981E7\", \n                \"#5D21E7\", \n                \"#E777E4\", \n                \"#E7E7E7\", \n                \"#312624\",\n                \"#E7969F\",\n                \"#E7B277\",\n                \"#E7DD8F\",\n                \"#8CE7C3\",\n                \"#87B2E7\",\n                \"#A082E7\",\n                \"#E4B7E7\"\n        ];\n\n        string public algorithm;\n        uint256 private n;\n\n        constructor() ERC721 (\"SWEETS\", \"SWEETS\") Ownable() {}       \n\n        function mint() public nonReentrant {\n                require(n < 4500);\n                n++;\n                _safeMint(msg.sender, n);\n        }\n\n        function ownerMint(uint256 id) public nonReentrant onlyOwner {\n                require(id > 4500  && id <= 5000);\n                _safeMint(msg.sender, id);\n        }\n\n        function setAlgo(string memory algo) public onlyOwner {\n                algorithm = algo;\n        }\n\n        function rand(uint256 id, string memory trait, string[] memory values) internal pure returns (string memory) {\n                uint256 k = uint256(keccak256(abi.encodePacked(trait, toString(id))));\n                return values[k % values.length];\n        }\n\n        function getSize(uint256 id) public view returns (string memory) {\n                return rand(id, \"size\", sizes);\n        }\n\n        function getSurface(uint256 id) public view returns (string memory) {\n                return rand(id, \"shape\", sizes);\n        }\n\n        function getShape(uint256 id) public view returns (string memory) {\n                return rand(id, \"surface\", sizes);\n        }\n\n        function getPalette(uint256 id) public view returns (string[4] memory) {\n                string[4] memory palette;\n                palette[0] = rand(id, \"color 0\", colors);\n                palette[1] = rand(id, \"color 1\", colors);\n                palette[2] = rand(id, \"color 2\", colors);\n                palette[3] = rand(id, \"color 3\", colors);\n                return palette;\n        }\n\n        function toString(uint256 value) internal pure returns (string memory) {\n                if (value == 0) { return \"0\"; }\n                uint256 temp = value;\n                uint256 digits;\n                while (temp != 0) {\n                        digits++;\n                        temp /= 10;\n                }\n                bytes memory buffer = new bytes(digits);\n                while (value != 0) {\n                        digits -= 1;\n                        buffer[digits] = bytes1(uint8(48 + uint256(value % 10)));\n                        value /= 10;\n\n                }\n                return string(buffer);\n        }\n}\n",
  "sourcePath": "/Users/d/code/rove/SWEETS/contracts/SWEETS.sol",
  "compiler": {
    "name": "solc",
    "version": "0.8.17+commit.8df45f5f.Emscripten.clang"
  },
  "schemaVersion": "3.4.10",
  "updatedAt": "2022-11-01T01:05:54.006Z",
  "devdoc": {
    "kind": "dev",
    "methods": {
      "approve(address,uint256)": {
        "details": "See {IERC721-approve}."
      },
      "balanceOf(address)": {
        "details": "See {IERC721-balanceOf}."
      },
      "getApproved(uint256)": {
        "details": "See {IERC721-getApproved}."
      },
      "isApprovedForAll(address,address)": {
        "details": "See {IERC721-isApprovedForAll}."
      },
      "name()": {
        "details": "See {IERC721Metadata-name}."
      },
      "owner()": {
        "details": "Returns the address of the current owner."
      },
      "ownerOf(uint256)": {
        "details": "See {IERC721-ownerOf}."
      },
      "renounceOwnership()": {
        "details": "Leaves the contract without owner. It will not be possible to call `onlyOwner` functions anymore. Can only be called by the current owner. NOTE: Renouncing ownership will leave the contract without an owner, thereby removing any functionality that is only available to the owner."
      },
      "safeTransferFrom(address,address,uint256)": {
        "details": "See {IERC721-safeTransferFrom}."
      },
      "safeTransferFrom(address,address,uint256,bytes)": {
        "details": "See {IERC721-safeTransferFrom}."
      },
      "setApprovalForAll(address,bool)": {
        "details": "See {IERC721-setApprovalForAll}."
      },
      "supportsInterface(bytes4)": {
        "details": "See {IERC165-supportsInterface}."
      },
      "symbol()": {
        "details": "See {IERC721Metadata-symbol}."
      },
      "tokenURI(uint256)": {
        "details": "See {IERC721Metadata-tokenURI}."
      },
      "transferFrom(address,address,uint256)": {
        "details": "See {IERC721-transferFrom}."
      },
      "transferOwnership(address)": {
        "details": "Transfers ownership of the contract to a new account (`newOwner`). Can only be called by the current owner."
      }
    },
    "version": 1
  },
  "userdoc": {
    "kind": "user",
    "methods": {},
    "version": 1
  }
}