{
  "contractName": "SWEETS",
  "abi": [
    {
      "inputs": [],
      "stateMutability": "nonpayable",
      "type": "constructor"
    },
    {
      "anonymous": false,
      "inputs": [
        {
          "indexed": true,
          "internalType": "address",
          "name": "owner",
          "type": "address"
        },
        {
          "indexed": true,
          "internalType": "address",
          "name": "approved",
          "type": "address"
        },
        {
          "indexed": true,
          "internalType": "uint256",
          "name": "tokenId",
          "type": "uint256"
        }
      ],
      "name": "Approval",
      "type": "event"
    },
    {
      "anonymous": false,
      "inputs": [
        {
          "indexed": true,
          "internalType": "address",
          "name": "owner",
          "type": "address"
        },
        {
          "indexed": true,
          "internalType": "address",
          "name": "operator",
          "type": "address"
        },
        {
          "indexed": false,
          "internalType": "bool",
          "name": "approved",
          "type": "bool"
        }
      ],
      "name": "ApprovalForAll",
      "type": "event"
    },
    {
      "anonymous": false,
      "inputs": [
        {
          "indexed": true,
          "internalType": "address",
          "name": "previousOwner",
          "type": "address"
        },
        {
          "indexed": true,
          "internalType": "address",
          "name": "newOwner",
          "type": "address"
        }
      ],
      "name": "OwnershipTransferred",
      "type": "event"
    },
    {
      "anonymous": false,
      "inputs": [
        {
          "indexed": true,
          "internalType": "address",
          "name": "from",
          "type": "address"
        },
        {
          "indexed": true,
          "internalType": "address",
          "name": "to",
          "type": "address"
        },
        {
          "indexed": true,
          "internalType": "uint256",
          "name": "tokenId",
          "type": "uint256"
        }
      ],
      "name": "Transfer",
      "type": "event"
    },
    {
      "inputs": [
        {
          "internalType": "address",
          "name": "to",
          "type": "address"
        },
        {
          "internalType": "uint256",
          "name": "tokenId",
          "type": "uint256"
        }
      ],
      "name": "approve",
      "outputs": [],
      "stateMutability": "nonpayable",
      "type": "function"
    },
    {
      "inputs": [
        {
          "internalType": "address",
          "name": "owner",
          "type": "address"
        }
      ],
      "name": "balanceOf",
      "outputs": [
        {
          "internalType": "uint256",
          "name": "",
          "type": "uint256"
        }
      ],
      "stateMutability": "view",
      "type": "function"
    },
    {
      "inputs": [
        {
          "internalType": "uint256",
          "name": "tokenId",
          "type": "uint256"
        }
      ],
      "name": "getApproved",
      "outputs": [
        {
          "internalType": "address",
          "name": "",
          "type": "address"
        }
      ],
      "stateMutability": "view",
      "type": "function"
    },
    {
      "inputs": [
        {
          "internalType": "address",
          "name": "owner",
          "type": "address"
        },
        {
          "internalType": "address",
          "name": "operator",
          "type": "address"
        }
      ],
      "name": "isApprovedForAll",
      "outputs": [
        {
          "internalType": "bool",
          "name": "",
          "type": "bool"
        }
      ],
      "stateMutability": "view",
      "type": "function"
    },
    {
      "inputs": [],
      "name": "name",
      "outputs": [
        {
          "internalType": "string",
          "name": "",
          "type": "string"
        }
      ],
      "stateMutability": "view",
      "type": "function"
    },
    {
      "inputs": [],
      "name": "owner",
      "outputs": [
        {
          "internalType": "address",
          "name": "",
          "type": "address"
        }
      ],
      "stateMutability": "view",
      "type": "function"
    },
    {
      "inputs": [
        {
          "internalType": "uint256",
          "name": "tokenId",
          "type": "uint256"
        }
      ],
      "name": "ownerOf",
      "outputs": [
        {
          "internalType": "address",
          "name": "",
          "type": "address"
        }
      ],
      "stateMutability": "view",
      "type": "function"
    },
    {
      "inputs": [],
      "name": "renounceOwnership",
      "outputs": [],
      "stateMutability": "nonpayable",
      "type": "function"
    },
    {
      "inputs": [
        {
          "internalType": "address",
          "name": "from",
          "type": "address"
        },
        {
          "internalType": "address",
          "name": "to",
          "type": "address"
        },
        {
          "internalType": "uint256",
          "name": "tokenId",
          "type": "uint256"
        }
      ],
      "name": "safeTransferFrom",
      "outputs": [],
      "stateMutability": "nonpayable",
      "type": "function"
    },
    {
      "inputs": [
        {
          "internalType": "address",
          "name": "from",
          "type": "address"
        },
        {
          "internalType": "address",
          "name": "to",
          "type": "address"
        },
        {
          "internalType": "uint256",
          "name": "tokenId",
          "type": "uint256"
        },
        {
          "internalType": "bytes",
          "name": "data",
          "type": "bytes"
        }
      ],
      "name": "safeTransferFrom",
      "outputs": [],
      "stateMutability": "nonpayable",
      "type": "function"
    },
    {
      "inputs": [
        {
          "internalType": "address",
          "name": "operator",
          "type": "address"
        },
        {
          "internalType": "bool",
          "name": "approved",
          "type": "bool"
        }
      ],
      "name": "setApprovalForAll",
      "outputs": [],
      "stateMutability": "nonpayable",
      "type": "function"
    },
    {
      "inputs": [
        {
          "internalType": "bytes4",
          "name": "interfaceId",
          "type": "bytes4"
        }
      ],
      "name": "supportsInterface",
      "outputs": [
        {
          "internalType": "bool",
          "name": "",
          "type": "bool"
        }
      ],
      "stateMutability": "view",
      "type": "function"
    },
    {
      "inputs": [],
      "name": "symbol",
      "outputs": [
        {
          "internalType": "string",
          "name": "",
          "type": "string"
        }
      ],
      "stateMutability": "view",
      "type": "function"
    },
    {
      "inputs": [
        {
          "internalType": "uint256",
          "name": "tokenId",
          "type": "uint256"
        }
      ],
      "name": "tokenURI",
      "outputs": [
        {
          "internalType": "string",
          "name": "",
          "type": "string"
        }
      ],
      "stateMutability": "view",
      "type": "function"
    },
    {
      "inputs": [
        {
          "internalType": "address",
          "name": "from",
          "type": "address"
        },
        {
          "internalType": "address",
          "name": "to",
          "type": "address"
        },
        {
          "internalType": "uint256",
          "name": "tokenId",
          "type": "uint256"
        }
      ],
      "name": "transferFrom",
      "outputs": [],
      "stateMutability": "nonpayable",
      "type": "function"
    },
    {
      "inputs": [
        {
          "internalType": "address",
          "name": "newOwner",
          "type": "address"
        }
      ],
      "name": "transferOwnership",
      "outputs": [],
      "stateMutability": "nonpayable",
      "type": "function"
    },
    {
      "inputs": [
        {
          "internalType": "uint256",
          "name": "id",
          "type": "uint256"
        }
      ],
      "name": "mint",
      "outputs": [],
      "stateMutability": "nonpayable",
      "type": "function"
    },
    {
      "inputs": [
        {
          "internalType": "uint256",
          "name": "id",
          "type": "uint256"
        }
      ],
      "name": "ownerMint",
      "outputs": [],
      "stateMutability": "nonpayable",
      "type": "function"
    },
    {
      "inputs": [
        {
          "internalType": "uint256",
          "name": "id",
          "type": "uint256"
        }
      ],
      "name": "getSize",
      "outputs": [
        {
          "internalType": "string",
          "name": "",
          "type": "string"
        }
      ],
      "stateMutability": "view",
      "type": "function"
    },
    {
      "inputs": [
        {
          "internalType": "uint256",
          "name": "id",
          "type": "uint256"
        }
      ],
      "name": "getSurface",
      "outputs": [
        {
          "internalType": "string",
          "name": "",
          "type": "string"
        }
      ],
      "stateMutability": "view",
      "type": "function"
    },
    {
      "inputs": [
        {
          "internalType": "uint256",
          "name": "id",
          "type": "uint256"
        }
      ],
      "name": "getShape",
      "outputs": [
        {
          "internalType": "string",
          "name": "",
          "type": "string"
        }
      ],
      "stateMutability": "view",
      "type": "function"
    },
    {
      "inputs": [
        {
          "internalType": "uint256",
          "name": "id",
          "type": "uint256"
        }
      ],
      "name": "getPalette",
      "outputs": [
        {
          "internalType": "string[4]",
          "name": "",
          "type": "string[4]"
        }
      ],
      "stateMutability": "view",
      "type": "function"
    }
  ],
  "bytecode": "0x60806040526040518060e001604052806040518060400160405280600881526020017f50696c6c6865616400000000000000000000000000000000000000000000000081525081526020016040518060400160405280600681526020017f536d696c6572000000000000000000000000000000000000000000000000000081525081526020016040518060400160405280600881526020017f5370656b7472616c00000000000000000000000000000000000000000000000081525081526020016040518060400160405280600581526020017f48656c697800000000000000000000000000000000000000000000000000000081525081526020016040518060400160405280600981526020017f546573736572616374000000000000000000000000000000000000000000000081525081526020016040518060400160405280600581526020017f546f72757300000000000000000000000000000000000000000000000000000081525081526020016040518060400160405280600781526020017f4f62656c69736b000000000000000000000000000000000000000000000000008152508152506008906007620001bc929190620008c0565b5060405180606001604052806040518060400160405280600681526020017f4e6962626c65000000000000000000000000000000000000000000000000000081525081526020016040518060400160405280600481526020017f426974650000000000000000000000000000000000000000000000000000000081525081526020016040518060400160405280600681526020017f4465766f7572000000000000000000000000000000000000000000000000000081525081525060099060036200028992919062000920565b5060405180606001604052806040518060400160405280600581526020017f687964726f00000000000000000000000000000000000000000000000000000081525081526020016040518060400160405280600681526020017f706c61746564000000000000000000000000000000000000000000000000000081525081526020016040518060400160405280600781526020017f74616374696c6500000000000000000000000000000000000000000000000000815250815250600a9060036200035692919062000920565b506040518061020001604052806040518060400160405280600781526020017f234537343334460000000000000000000000000000000000000000000000000081525081526020016040518060400160405280600781526020017f234537393733440000000000000000000000000000000000000000000000000081525081526020016040518060400160405280600781526020017f234537444334450000000000000000000000000000000000000000000000000081525081526020016040518060400160405280600781526020017f233543453735440000000000000000000000000000000000000000000000000081525081526020016040518060400160405280600781526020017f233239383145370000000000000000000000000000000000000000000000000081525081526020016040518060400160405280600781526020017f233544323145370000000000000000000000000000000000000000000000000081525081526020016040518060400160405280600781526020017f234537373745340000000000000000000000000000000000000000000000000081525081526020016040518060400160405280600781526020017f234537453745370000000000000000000000000000000000000000000000000081525081526020016040518060400160405280600781526020017f233331323632340000000000000000000000000000000000000000000000000081525081526020016040518060400160405280600781526020017f234537393639460000000000000000000000000000000000000000000000000081525081526020016040518060400160405280600781526020017f234537423237370000000000000000000000000000000000000000000000000081525081526020016040518060400160405280600781526020017f234537444438460000000000000000000000000000000000000000000000000081525081526020016040518060400160405280600781526020017f233843453743330000000000000000000000000000000000000000000000000081525081526020016040518060400160405280600781526020017f233837423245370000000000000000000000000000000000000000000000000081525081526020016040518060400160405280600781526020017f234130383245370000000000000000000000000000000000000000000000000081525081526020016040518060400160405280600781526020017f2345344237453700000000000000000000000000000000000000000000000000815250815250600b9060106200072392919062000980565b503480156200073157600080fd5b506040518060400160405280600681526020017f53574545545300000000000000000000000000000000000000000000000000008152506040518060400160405280600681526020017f53574545545300000000000000000000000000000000000000000000000000008152508160009081620007af919062000ce7565b508060019081620007c1919062000ce7565b505050620007e4620007d8620007f260201b60201c565b620007fa60201b60201c565b600160078190555062000dce565b600033905090565b6000600660009054906101000a900473ffffffffffffffffffffffffffffffffffffffff16905081600660006101000a81548173ffffffffffffffffffffffffffffffffffffffff021916908373ffffffffffffffffffffffffffffffffffffffff1602179055508173ffffffffffffffffffffffffffffffffffffffff168173ffffffffffffffffffffffffffffffffffffffff167f8be0079c531659141344cd1fd0a4f28419497f9722a3daafe3b4186f6b6457e060405160405180910390a35050565b8280548282559060005260206000209081019282156200090d579160200282015b828111156200090c578251829081620008fb919062000ce7565b5091602001919060010190620008e1565b5b5090506200091c9190620009e0565b5090565b8280548282559060005260206000209081019282156200096d579160200282015b828111156200096c5782518290816200095b919062000ce7565b509160200191906001019062000941565b5b5090506200097c9190620009e0565b5090565b828054828255906000526020600020908101928215620009cd579160200282015b82811115620009cc578251829081620009bb919062000ce7565b5091602001919060010190620009a1565b5b509050620009dc9190620009e0565b5090565b5b8082111562000a045760008181620009fa919062000a08565b50600101620009e1565b5090565b50805462000a169062000ad6565b6000825580601f1062000a2a575062000a4b565b601f01602090049060005260206000209081019062000a4a919062000a4e565b5b50565b5b8082111562000a6957600081600090555060010162000a4f565b5090565b600081519050919050565b7f4e487b7100000000000000000000000000000000000000000000000000000000600052604160045260246000fd5b7f4e487b7100000000000000000000000000000000000000000000000000000000600052602260045260246000fd5b6000600282049050600182168062000aef57607f821691505b60208210810362000b055762000b0462000aa7565b5b50919050565b60008190508160005260206000209050919050565b60006020601f8301049050919050565b600082821b905092915050565b60006008830262000b6f7fffffffffffffffffffffffffffffffffffffffffffffffffffffffffffffffff8262000b30565b62000b7b868362000b30565b95508019841693508086168417925050509392505050565b6000819050919050565b6000819050919050565b600062000bc862000bc262000bbc8462000b93565b62000b9d565b62000b93565b9050919050565b6000819050919050565b62000be48362000ba7565b62000bfc62000bf38262000bcf565b84845462000b3d565b825550505050565b600090565b62000c1362000c04565b62000c2081848462000bd9565b505050565b5b8181101562000c485762000c3c60008262000c09565b60018101905062000c26565b5050565b601f82111562000c975762000c618162000b0b565b62000c6c8462000b20565b8101602085101562000c7c578190505b62000c9462000c8b8562000b20565b83018262000c25565b50505b505050565b600082821c905092915050565b600062000cbc6000198460080262000c9c565b1980831691505092915050565b600062000cd7838362000ca9565b9150826002028217905092915050565b62000cf28262000a6d565b67ffffffffffffffff81111562000d0e5762000d0d62000a78565b5b62000d1a825462000ad6565b62000d2782828562000c4c565b600060209050601f83116001811462000d5f576000841562000d4a578287015190505b62000d56858262000cc9565b86555062000dc6565b601f19841662000d6f8662000b0b565b60005b8281101562000d995784890151825560018201915060208501945060208101905062000d72565b8683101562000db9578489015162000db5601f89168262000ca9565b8355505b6001600288020188555050505b505050505050565b6135cd8062000dde6000396000f3fe608060405234801561001057600080fd5b50600436106101425760003560e01c806370a08231116100b8578063a22cb4651161007c578063a22cb4651461039b578063b88d4fde146103b7578063c87b56dd146103d3578063e985e9c514610403578063f19e75d414610433578063f2fde38b1461044f57610142565b806370a0823114610309578063715018a6146103395780638da5cb5b1461034357806395d89b4114610361578063a0712d681461037f57610142565b806311ad80471161010a57806311ad80471461021157806322ced7211461024157806323b872dd1461027157806342842e0e1461028d578063505e570a146102a95780636352211e146102d957610142565b806301ffc9a714610147578063023c23db1461017757806306fdde03146101a7578063081812fc146101c5578063095ea7b3146101f5575b600080fd5b610161600480360381019061015c91906124cd565b61046b565b60405161016e9190612515565b60405180910390f35b610191600480360381019061018c9190612566565b61054d565b60405161019e9190612623565b60405180910390f35b6101af610667565b6040516101bc9190612623565b60405180910390f35b6101df60048036038101906101da9190612566565b6106f9565b6040516101ec9190612686565b60405180910390f35b61020f600480360381019061020a91906126cd565b61073f565b005b61022b60048036038101906102269190612566565b610856565b6040516102389190612623565b60405180910390f35b61025b60048036038101906102569190612566565b610970565b6040516102689190612623565b60405180910390f35b61028b6004803603810190610286919061270d565b610a8a565b005b6102a760048036038101906102a2919061270d565b610aea565b005b6102c360048036038101906102be9190612566565b610b0a565b6040516102d09190612860565b60405180910390f35b6102f360048036038101906102ee9190612566565b610fd7565b6040516103009190612686565b60405180910390f35b610323600480360381019061031e9190612882565b611088565b60405161033091906128be565b60405180910390f35b61034161113f565b005b61034b611153565b6040516103589190612686565b60405180910390f35b61036961117d565b6040516103769190612623565b60405180910390f35b61039960048036038101906103949190612566565b61120f565b005b6103b560048036038101906103b09190612905565b61128c565b005b6103d160048036038101906103cc9190612a7a565b6112a2565b005b6103ed60048036038101906103e89190612566565b611304565b6040516103fa9190612623565b60405180910390f35b61041d60048036038101906104189190612afd565b61136c565b60405161042a9190612515565b60405180910390f35b61044d60048036038101906104489190612566565b611400565b005b61046960048036038101906104649190612882565b611486565b005b60007f80ac58cd000000000000000000000000000000000000000000000000000000007bffffffffffffffffffffffffffffffffffffffffffffffffffffffff1916827bffffffffffffffffffffffffffffffffffffffffffffffffffffffff1916148061053657507f5b5e139f000000000000000000000000000000000000000000000000000000007bffffffffffffffffffffffffffffffffffffffffffffffffffffffff1916827bffffffffffffffffffffffffffffffffffffffffffffffffffffffff1916145b80610546575061054582611509565b5b9050919050565b6060610660826040518060400160405280600481526020017f73697a65000000000000000000000000000000000000000000000000000000008152506009805480602002602001604051908101604052809291908181526020016000905b828210156106575783829060005260206000200180546105ca90612b6c565b80601f01602080910402602001604051908101604052809291908181526020018280546105f690612b6c565b80156106435780601f1061061857610100808354040283529160200191610643565b820191906000526020600020905b81548152906001019060200180831161062657829003601f168201915b5050505050815260200190600101906105ab565b50505050611573565b9050919050565b60606000805461067690612b6c565b80601f01602080910402602001604051908101604052809291908181526020018280546106a290612b6c565b80156106ef5780601f106106c4576101008083540402835291602001916106ef565b820191906000526020600020905b8154815290600101906020018083116106d257829003601f168201915b5050505050905090565b6000610704826115de565b6004600083815260200190815260200160002060009054906101000a900473ffffffffffffffffffffffffffffffffffffffff169050919050565b600061074a82610fd7565b90508073ffffffffffffffffffffffffffffffffffffffff168373ffffffffffffffffffffffffffffffffffffffff16036107ba576040517f08c379a00000000000000000000000000000000000000000000000000000000081526004016107b190612c0f565b60405180910390fd5b8073ffffffffffffffffffffffffffffffffffffffff166107d9611629565b73ffffffffffffffffffffffffffffffffffffffff161480610808575061080781610802611629565b61136c565b5b610847576040517f08c379a000000000000000000000000000000000000000000000000000000000815260040161083e90612ca1565b60405180910390fd5b6108518383611631565b505050565b6060610969826040518060400160405280600581526020017f73686170650000000000000000000000000000000000000000000000000000008152506009805480602002602001604051908101604052809291908181526020016000905b828210156109605783829060005260206000200180546108d390612b6c565b80601f01602080910402602001604051908101604052809291908181526020018280546108ff90612b6c565b801561094c5780601f106109215761010080835404028352916020019161094c565b820191906000526020600020905b81548152906001019060200180831161092f57829003601f168201915b5050505050815260200190600101906108b4565b50505050611573565b9050919050565b6060610a83826040518060400160405280600781526020017f73757266616365000000000000000000000000000000000000000000000000008152506009805480602002602001604051908101604052809291908181526020016000905b82821015610a7a5783829060005260206000200180546109ed90612b6c565b80601f0160208091040260200160405190810160405280929190818152602001828054610a1990612b6c565b8015610a665780601f10610a3b57610100808354040283529160200191610a66565b820191906000526020600020905b815481529060010190602001808311610a4957829003601f168201915b5050505050815260200190600101906109ce565b50505050611573565b9050919050565b610a9b610a95611629565b826116ea565b610ada576040517f08c379a0000000000000000000000000000000000000000000000000000000008152600401610ad190612d33565b60405180910390fd5b610ae583838361177f565b505050565b610b05838383604051806020016040528060008152506112a2565b505050565b610b1261243a565b610b1a61243a565b610c2b836040518060400160405280600781526020017f636f6c6f72203000000000000000000000000000000000000000000000000000815250600b805480602002602001604051908101604052809291908181526020016000905b82821015610c22578382906000526020600020018054610b9590612b6c565b80601f0160208091040260200160405190810160405280929190818152602001828054610bc190612b6c565b8015610c0e5780601f10610be357610100808354040283529160200191610c0e565b820191906000526020600020905b815481529060010190602001808311610bf157829003601f168201915b505050505081526020019060010190610b76565b50505050611573565b81600060048110610c3f57610c3e612d53565b5b6020020181905250610d58836040518060400160405280600781526020017f636f6c6f72203100000000000000000000000000000000000000000000000000815250600b805480602002602001604051908101604052809291908181526020016000905b82821015610d4f578382906000526020600020018054610cc290612b6c565b80601f0160208091040260200160405190810160405280929190818152602001828054610cee90612b6c565b8015610d3b5780601f10610d1057610100808354040283529160200191610d3b565b820191906000526020600020905b815481529060010190602001808311610d1e57829003601f168201915b505050505081526020019060010190610ca3565b50505050611573565b81600160048110610d6c57610d6b612d53565b5b6020020181905250610e85836040518060400160405280600781526020017f636f6c6f72203200000000000000000000000000000000000000000000000000815250600b805480602002602001604051908101604052809291908181526020016000905b82821015610e7c578382906000526020600020018054610def90612b6c565b80601f0160208091040260200160405190810160405280929190818152602001828054610e1b90612b6c565b8015610e685780601f10610e3d57610100808354040283529160200191610e68565b820191906000526020600020905b815481529060010190602001808311610e4b57829003601f168201915b505050505081526020019060010190610dd0565b50505050611573565b81600260048110610e9957610e98612d53565b5b6020020181905250610fb2836040518060400160405280600781526020017f636f6c6f72203300000000000000000000000000000000000000000000000000815250600b805480602002602001604051908101604052809291908181526020016000905b82821015610fa9578382906000526020600020018054610f1c90612b6c565b80601f0160208091040260200160405190810160405280929190818152602001828054610f4890612b6c565b8015610f955780601f10610f6a57610100808354040283529160200191610f95565b820191906000526020600020905b815481529060010190602001808311610f7857829003601f168201915b505050505081526020019060010190610efd565b50505050611573565b81600360048110610fc657610fc5612d53565b5b602002018190525080915050919050565b6000806002600084815260200190815260200160002060009054906101000a900473ffffffffffffffffffffffffffffffffffffffff169050600073ffffffffffffffffffffffffffffffffffffffff168173ffffffffffffffffffffffffffffffffffffffff160361107f576040517f08c379a000000000000000000000000000000000000000000000000000000000815260040161107690612dce565b60405180910390fd5b80915050919050565b60008073ffffffffffffffffffffffffffffffffffffffff168273ffffffffffffffffffffffffffffffffffffffff16036110f8576040517f08c379a00000000000000000000000000000000000000000000000000000000081526004016110ef90612e60565b60405180910390fd5b600360008373ffffffffffffffffffffffffffffffffffffffff1673ffffffffffffffffffffffffffffffffffffffff168152602001908152602001600020549050919050565b6111476119e5565b6111516000611a63565b565b6000600660009054906101000a900473ffffffffffffffffffffffffffffffffffffffff16905090565b60606001805461118c90612b6c565b80601f01602080910402602001604051908101604052809291908181526020018280546111b890612b6c565b80156112055780601f106111da57610100808354040283529160200191611205565b820191906000526020600020905b8154815290600101906020018083116111e857829003601f168201915b5050505050905090565b600260075403611254576040517f08c379a000000000000000000000000000000000000000000000000000000000815260040161124b90612ecc565b60405180910390fd5b600260078190555060008111801561126e57506111948111155b61127757600080fd5b6112813382611b29565b600160078190555050565b61129e611297611629565b8383611b47565b5050565b6112b36112ad611629565b836116ea565b6112f2576040517f08c379a00000000000000000000000000000000000000000000000000000000081526004016112e990612d33565b60405180910390fd5b6112fe84848484611cb3565b50505050565b606061130f826115de565b6000611319611d0f565b905060008151116113395760405180602001604052806000815250611364565b8061134384611d26565b604051602001611354929190612f28565b6040516020818303038152906040525b915050919050565b6000600560008473ffffffffffffffffffffffffffffffffffffffff1673ffffffffffffffffffffffffffffffffffffffff16815260200190815260200160002060008373ffffffffffffffffffffffffffffffffffffffff1673ffffffffffffffffffffffffffffffffffffffff16815260200190815260200160002060009054906101000a900460ff16905092915050565b600260075403611445576040517f08c379a000000000000000000000000000000000000000000000000000000000815260040161143c90612ecc565b60405180910390fd5b60026007819055506114556119e5565b6111948111801561146857506113888111155b61147157600080fd5b61147b3382611b29565b600160078190555050565b61148e6119e5565b600073ffffffffffffffffffffffffffffffffffffffff168173ffffffffffffffffffffffffffffffffffffffff16036114fd576040517f08c379a00000000000000000000000000000000000000000000000000000000081526004016114f490612fbe565b60405180910390fd5b61150681611a63565b50565b60007f01ffc9a7000000000000000000000000000000000000000000000000000000007bffffffffffffffffffffffffffffffffffffffffffffffffffffffff1916827bffffffffffffffffffffffffffffffffffffffffffffffffffffffff1916149050919050565b606060008361158186611e86565b604051602001611592929190612f28565b6040516020818303038152906040528051906020012060001c9050828351826115bb919061300d565b815181106115cc576115cb612d53565b5b60200260200101519150509392505050565b6115e781611fe6565b611626576040517f08c379a000000000000000000000000000000000000000000000000000000000815260040161161d90612dce565b60405180910390fd5b50565b600033905090565b816004600083815260200190815260200160002060006101000a81548173ffffffffffffffffffffffffffffffffffffffff021916908373ffffffffffffffffffffffffffffffffffffffff160217905550808273ffffffffffffffffffffffffffffffffffffffff166116a483610fd7565b73ffffffffffffffffffffffffffffffffffffffff167f8c5be1e5ebec7d5bd14f71427d1e84f3dd0314c0f7b2291e5b200ac8c7c3b92560405160405180910390a45050565b6000806116f683610fd7565b90508073ffffffffffffffffffffffffffffffffffffffff168473ffffffffffffffffffffffffffffffffffffffff1614806117385750611737818561136c565b5b8061177657508373ffffffffffffffffffffffffffffffffffffffff1661175e846106f9565b73ffffffffffffffffffffffffffffffffffffffff16145b91505092915050565b8273ffffffffffffffffffffffffffffffffffffffff1661179f82610fd7565b73ffffffffffffffffffffffffffffffffffffffff16146117f5576040517f08c379a00000000000000000000000000000000000000000000000000000000081526004016117ec906130b0565b60405180910390fd5b600073ffffffffffffffffffffffffffffffffffffffff168273ffffffffffffffffffffffffffffffffffffffff1603611864576040517f08c379a000000000000000000000000000000000000000000000000000000000815260040161185b90613142565b60405180910390fd5b61186f838383612052565b61187a600082611631565b6001600360008573ffffffffffffffffffffffffffffffffffffffff1673ffffffffffffffffffffffffffffffffffffffff16815260200190815260200160002060008282546118ca9190613191565b925050819055506001600360008473ffffffffffffffffffffffffffffffffffffffff1673ffffffffffffffffffffffffffffffffffffffff168152602001908152602001600020600082825461192191906131c5565b92505081905550816002600083815260200190815260200160002060006101000a81548173ffffffffffffffffffffffffffffffffffffffff021916908373ffffffffffffffffffffffffffffffffffffffff160217905550808273ffffffffffffffffffffffffffffffffffffffff168473ffffffffffffffffffffffffffffffffffffffff167fddf252ad1be2c89b69c2b068fc378daa952ba7f163c4a11628f55a4df523b3ef60405160405180910390a46119e0838383612057565b505050565b6119ed611629565b73ffffffffffffffffffffffffffffffffffffffff16611a0b611153565b73ffffffffffffffffffffffffffffffffffffffff1614611a61576040517f08c379a0000000000000000000000000000000000000000000000000000000008152600401611a5890613245565b60405180910390fd5b565b6000600660009054906101000a900473ffffffffffffffffffffffffffffffffffffffff16905081600660006101000a81548173ffffffffffffffffffffffffffffffffffffffff021916908373ffffffffffffffffffffffffffffffffffffffff1602179055508173ffffffffffffffffffffffffffffffffffffffff168173ffffffffffffffffffffffffffffffffffffffff167f8be0079c531659141344cd1fd0a4f28419497f9722a3daafe3b4186f6b6457e060405160405180910390a35050565b611b4382826040518060200160405280600081525061205c565b5050565b8173ffffffffffffffffffffffffffffffffffffffff168373ffffffffffffffffffffffffffffffffffffffff1603611bb5576040517f08c379a0000000000000000000000000000000000000000000000000000000008152600401611bac906132b1565b60405180910390fd5b80600560008573ffffffffffffffffffffffffffffffffffffffff1673ffffffffffffffffffffffffffffffffffffffff16815260200190815260200160002060008473ffffffffffffffffffffffffffffffffffffffff1673ffffffffffffffffffffffffffffffffffffffff16815260200190815260200160002060006101000a81548160ff0219169083151502179055508173ffffffffffffffffffffffffffffffffffffffff168373ffffffffffffffffffffffffffffffffffffffff167f17307eab39ab6107e8899845ad3d59bd9653f200f220920489ca2b5937696c3183604051611ca69190612515565b60405180910390a3505050565b611cbe84848461177f565b611cca848484846120b7565b611d09576040517f08c379a0000000000000000000000000000000000000000000000000000000008152600401611d0090613343565b60405180910390fd5b50505050565b606060405180602001604052806000815250905090565b606060008203611d6d576040518060400160405280600181526020017f30000000000000000000000000000000000000000000000000000000000000008152509050611e81565b600082905060005b60008214611d9f578080611d8890613363565b915050600a82611d9891906133ab565b9150611d75565b60008167ffffffffffffffff811115611dbb57611dba61294f565b5b6040519080825280601f01601f191660200182016040528015611ded5781602001600182028036833780820191505090505b5090505b60008514611e7a57600182611e069190613191565b9150600a85611e15919061300d565b6030611e2191906131c5565b60f81b818381518110611e3757611e36612d53565b5b60200101907effffffffffffffffffffffffffffffffffffffffffffffffffffffffffffff1916908160001a905350600a85611e7391906133ab565b9450611df1565b8093505050505b919050565b606060008203611ecd576040518060400160405280600181526020017f30000000000000000000000000000000000000000000000000000000000000008152509050611fe1565b600082905060005b60008214611eff578080611ee890613363565b915050600a82611ef891906133ab565b9150611ed5565b60008167ffffffffffffffff811115611f1b57611f1a61294f565b5b6040519080825280601f01601f191660200182016040528015611f4d5781602001600182028036833780820191505090505b5090505b60008514611fda57600182611f669190613191565b9150600a85611f75919061300d565b6030611f8191906131c5565b60f81b818381518110611f9757611f96612d53565b5b60200101907effffffffffffffffffffffffffffffffffffffffffffffffffffffffffffff1916908160001a905350600a85611fd391906133ab565b9450611f51565b8093505050505b919050565b60008073ffffffffffffffffffffffffffffffffffffffff166002600084815260200190815260200160002060009054906101000a900473ffffffffffffffffffffffffffffffffffffffff1673ffffffffffffffffffffffffffffffffffffffff1614159050919050565b505050565b505050565b612066838361223e565b61207360008484846120b7565b6120b2576040517f08c379a00000000000000000000000000000000000000000000000000000000081526004016120a990613343565b60405180910390fd5b505050565b60006120d88473ffffffffffffffffffffffffffffffffffffffff16612417565b15612231578373ffffffffffffffffffffffffffffffffffffffff1663150b7a02612101611629565b8786866040518563ffffffff1660e01b81526004016121239493929190613431565b6020604051808303816000875af192505050801561215f57506040513d601f19601f8201168201806040525081019061215c9190613492565b60015b6121e1573d806000811461218f576040519150601f19603f3d011682016040523d82523d6000602084013e612194565b606091505b5060008151036121d9576040517f08c379a00000000000000000000000000000000000000000000000000000000081526004016121d090613343565b60405180910390fd5b805181602001fd5b63150b7a0260e01b7bffffffffffffffffffffffffffffffffffffffffffffffffffffffff1916817bffffffffffffffffffffffffffffffffffffffffffffffffffffffff191614915050612236565b600190505b949350505050565b600073ffffffffffffffffffffffffffffffffffffffff168273ffffffffffffffffffffffffffffffffffffffff16036122ad576040517f08c379a00000000000000000000000000000000000000000000000000000000081526004016122a49061350b565b60405180910390fd5b6122b681611fe6565b156122f6576040517f08c379a00000000000000000000000000000000000000000000000000000000081526004016122ed90613577565b60405180910390fd5b61230260008383612052565b6001600360008473ffffffffffffffffffffffffffffffffffffffff1673ffffffffffffffffffffffffffffffffffffffff168152602001908152602001600020600082825461235291906131c5565b92505081905550816002600083815260200190815260200160002060006101000a81548173ffffffffffffffffffffffffffffffffffffffff021916908373ffffffffffffffffffffffffffffffffffffffff160217905550808273ffffffffffffffffffffffffffffffffffffffff16600073ffffffffffffffffffffffffffffffffffffffff167fddf252ad1be2c89b69c2b068fc378daa952ba7f163c4a11628f55a4df523b3ef60405160405180910390a461241360008383612057565b5050565b6000808273ffffffffffffffffffffffffffffffffffffffff163b119050919050565b60405180608001604052806004905b60608152602001906001900390816124495790505090565b6000604051905090565b600080fd5b600080fd5b60007fffffffff0000000000000000000000000000000000000000000000000000000082169050919050565b6124aa81612475565b81146124b557600080fd5b50565b6000813590506124c7816124a1565b92915050565b6000602082840312156124e3576124e261246b565b5b60006124f1848285016124b8565b91505092915050565b60008115159050919050565b61250f816124fa565b82525050565b600060208201905061252a6000830184612506565b92915050565b6000819050919050565b61254381612530565b811461254e57600080fd5b50565b6000813590506125608161253a565b92915050565b60006020828403121561257c5761257b61246b565b5b600061258a84828501612551565b91505092915050565b600081519050919050565b600082825260208201905092915050565b60005b838110156125cd5780820151818401526020810190506125b2565b60008484015250505050565b6000601f19601f8301169050919050565b60006125f582612593565b6125ff818561259e565b935061260f8185602086016125af565b612618816125d9565b840191505092915050565b6000602082019050818103600083015261263d81846125ea565b905092915050565b600073ffffffffffffffffffffffffffffffffffffffff82169050919050565b600061267082612645565b9050919050565b61268081612665565b82525050565b600060208201905061269b6000830184612677565b92915050565b6126aa81612665565b81146126b557600080fd5b50565b6000813590506126c7816126a1565b92915050565b600080604083850312156126e4576126e361246b565b5b60006126f2858286016126b8565b925050602061270385828601612551565b9150509250929050565b6000806000606084860312156127265761272561246b565b5b6000612734868287016126b8565b9350506020612745868287016126b8565b925050604061275686828701612551565b9150509250925092565b600060049050919050565b600081905092915050565b6000819050919050565b600082825260208201905092915050565b600061279c82612593565b6127a68185612780565b93506127b68185602086016125af565b6127bf816125d9565b840191505092915050565b60006127d68383612791565b905092915050565b6000602082019050919050565b60006127f682612760565b612800818561276b565b93508360208202850161281285612776565b8060005b8581101561284e578484038952815161282f85826127ca565b945061283a836127de565b925060208a01995050600181019050612816565b50829750879550505050505092915050565b6000602082019050818103600083015261287a81846127eb565b905092915050565b6000602082840312156128985761289761246b565b5b60006128a6848285016126b8565b91505092915050565b6128b881612530565b82525050565b60006020820190506128d360008301846128af565b92915050565b6128e2816124fa565b81146128ed57600080fd5b50565b6000813590506128ff816128d9565b92915050565b6000806040838503121561291c5761291b61246b565b5b600061292a858286016126b8565b925050602061293b858286016128f0565b9150509250929050565b600080fd5b600080fd5b7f4e487b7100000000000000000000000000000000000000000000000000000000600052604160045260246000fd5b612987826125d9565b810181811067ffffffffffffffff821117156129a6576129a561294f565b5b80604052505050565b60006129b9612461565b90506129c5828261297e565b919050565b600067ffffffffffffffff8211156129e5576129e461294f565b5b6129ee826125d9565b9050602081019050919050565b82818337600083830152505050565b6000612a1d612a18846129ca565b6129af565b905082815260208101848484011115612a3957612a3861294a565b5b612a448482856129fb565b509392505050565b600082601f830112612a6157612a60612945565b5b8135612a71848260208601612a0a565b91505092915050565b60008060008060808587031215612a9457612a9361246b565b5b6000612aa2878288016126b8565b9450506020612ab3878288016126b8565b9350506040612ac487828801612551565b925050606085013567ffffffffffffffff811115612ae557612ae4612470565b5b612af187828801612a4c565b91505092959194509250565b60008060408385031215612b1457612b1361246b565b5b6000612b22858286016126b8565b9250506020612b33858286016126b8565b9150509250929050565b7f4e487b7100000000000000000000000000000000000000000000000000000000600052602260045260246000fd5b60006002820490506001821680612b8457607f821691505b602082108103612b9757612b96612b3d565b5b50919050565b7f4552433732313a20617070726f76616c20746f2063757272656e74206f776e6560008201527f7200000000000000000000000000000000000000000000000000000000000000602082015250565b6000612bf960218361259e565b9150612c0482612b9d565b604082019050919050565b60006020820190508181036000830152612c2881612bec565b9050919050565b7f4552433732313a20617070726f76652063616c6c6572206973206e6f7420746f60008201527f6b656e206f776e6572206e6f7220617070726f76656420666f7220616c6c0000602082015250565b6000612c8b603e8361259e565b9150612c9682612c2f565b604082019050919050565b60006020820190508181036000830152612cba81612c7e565b9050919050565b7f4552433732313a2063616c6c6572206973206e6f7420746f6b656e206f776e6560008201527f72206e6f7220617070726f766564000000000000000000000000000000000000602082015250565b6000612d1d602e8361259e565b9150612d2882612cc1565b604082019050919050565b60006020820190508181036000830152612d4c81612d10565b9050919050565b7f4e487b7100000000000000000000000000000000000000000000000000000000600052603260045260246000fd5b7f4552433732313a20696e76616c696420746f6b656e2049440000000000000000600082015250565b6000612db860188361259e565b9150612dc382612d82565b602082019050919050565b60006020820190508181036000830152612de781612dab565b9050919050565b7f4552433732313a2061646472657373207a65726f206973206e6f74206120766160008201527f6c6964206f776e65720000000000000000000000000000000000000000000000602082015250565b6000612e4a60298361259e565b9150612e5582612dee565b604082019050919050565b60006020820190508181036000830152612e7981612e3d565b9050919050565b7f5265656e7472616e637947756172643a207265656e7472616e742063616c6c00600082015250565b6000612eb6601f8361259e565b9150612ec182612e80565b602082019050919050565b60006020820190508181036000830152612ee581612ea9565b9050919050565b600081905092915050565b6000612f0282612593565b612f0c8185612eec565b9350612f1c8185602086016125af565b80840191505092915050565b6000612f348285612ef7565b9150612f408284612ef7565b91508190509392505050565b7f4f776e61626c653a206e6577206f776e657220697320746865207a65726f206160008201527f6464726573730000000000000000000000000000000000000000000000000000602082015250565b6000612fa860268361259e565b9150612fb382612f4c565b604082019050919050565b60006020820190508181036000830152612fd781612f9b565b9050919050565b7f4e487b7100000000000000000000000000000000000000000000000000000000600052601260045260246000fd5b600061301882612530565b915061302383612530565b92508261303357613032612fde565b5b828206905092915050565b7f4552433732313a207472616e736665722066726f6d20696e636f72726563742060008201527f6f776e6572000000000000000000000000000000000000000000000000000000602082015250565b600061309a60258361259e565b91506130a58261303e565b604082019050919050565b600060208201905081810360008301526130c98161308d565b9050919050565b7f4552433732313a207472616e7366657220746f20746865207a65726f2061646460008201527f7265737300000000000000000000000000000000000000000000000000000000602082015250565b600061312c60248361259e565b9150613137826130d0565b604082019050919050565b6000602082019050818103600083015261315b8161311f565b9050919050565b7f4e487b7100000000000000000000000000000000000000000000000000000000600052601160045260246000fd5b600061319c82612530565b91506131a783612530565b92508282039050818111156131bf576131be613162565b5b92915050565b60006131d082612530565b91506131db83612530565b92508282019050808211156131f3576131f2613162565b5b92915050565b7f4f776e61626c653a2063616c6c6572206973206e6f7420746865206f776e6572600082015250565b600061322f60208361259e565b915061323a826131f9565b602082019050919050565b6000602082019050818103600083015261325e81613222565b9050919050565b7f4552433732313a20617070726f766520746f2063616c6c657200000000000000600082015250565b600061329b60198361259e565b91506132a682613265565b602082019050919050565b600060208201905081810360008301526132ca8161328e565b9050919050565b7f4552433732313a207472616e7366657220746f206e6f6e20455243373231526560008201527f63656976657220696d706c656d656e7465720000000000000000000000000000602082015250565b600061332d60328361259e565b9150613338826132d1565b604082019050919050565b6000602082019050818103600083015261335c81613320565b9050919050565b600061336e82612530565b91507fffffffffffffffffffffffffffffffffffffffffffffffffffffffffffffffff82036133a05761339f613162565b5b600182019050919050565b60006133b682612530565b91506133c183612530565b9250826133d1576133d0612fde565b5b828204905092915050565b600081519050919050565b600082825260208201905092915050565b6000613403826133dc565b61340d81856133e7565b935061341d8185602086016125af565b613426816125d9565b840191505092915050565b60006080820190506134466000830187612677565b6134536020830186612677565b61346060408301856128af565b818103606083015261347281846133f8565b905095945050505050565b60008151905061348c816124a1565b92915050565b6000602082840312156134a8576134a761246b565b5b60006134b68482850161347d565b91505092915050565b7f4552433732313a206d696e7420746f20746865207a65726f2061646472657373600082015250565b60006134f560208361259e565b9150613500826134bf565b602082019050919050565b60006020820190508181036000830152613524816134e8565b9050919050565b7f4552433732313a20746f6b656e20616c7265616479206d696e74656400000000600082015250565b6000613561601c8361259e565b915061356c8261352b565b602082019050919050565b6000602082019050818103600083015261359081613554565b905091905056fea2646970667358221220a9d97c32196933dd3d9f7e9e660ca76b1fa093b1fc665e8610c5ede52f0b4bd164736f6c63430008110033",
  "immutableReferences": {},
  "source": "// SPDX-License-Identifier: MIT\npragma solidity ^0.8.13;\n\nimport \"@openzeppelin/contracts/token/ERC721/ERC721.sol\";\nimport \"@openzeppelin/contracts/access/Ownable.sol\";\nimport \"@openzeppelin/contracts/security/ReentrancyGuard.sol\";\n\ncontract SWEETS is ERC721, Ownable, ReentrancyGuard {\n\n        string[] private shapes = [\n                \"Pillhead\",\n                \"Smiler\",\n                \"Spektral\",\n                \"Helix\",\n                \"Tesseract\",\n                \"Torus\",\n                \"Obelisk\"\n        ];\n\n        string[] private sizes = [\n                \"Nibble\",\n                \"Bite\",\n                \"Devour\"\n        ];\n\n        string[] private surfaces = [\n                \"hydro\",\n                \"plated\",\n                \"tactile\"\n        ];\n\n        string[] private colors = [\n                \"#E7434F\",\n                \"#E7973D\",\n                \"#E7DC4E\",\n                \"#5CE75D\",\n                \"#2981E7\", \n                \"#5D21E7\", \n                \"#E777E4\", \n                \"#E7E7E7\", \n                \"#312624\",\n                \"#E7969F\",\n                \"#E7B277\",\n                \"#E7DD8F\",\n                \"#8CE7C3\",\n                \"#87B2E7\",\n                \"#A082E7\",\n                \"#E4B7E7\"\n        ];\n\n        constructor() ERC721 (\"SWEETS\", \"SWEETS\") Ownable() {}       \n\n        function mint(uint256 id) public nonReentrant {\n                require(id > 0 && id <= 4500);\n                _safeMint(msg.sender, id);\n        }\n\n        function ownerMint(uint256 id) public nonReentrant onlyOwner {\n                require(id > 4500  && id <= 5000);\n                _safeMint(msg.sender, id);\n        }\n\n        function rand(uint256 id, string memory trait, string[] memory values) internal pure returns (string memory) {\n                uint256 k = uint256(keccak256(abi.encodePacked(trait, toString(id))));\n                return values[k % values.length];\n        }\n\n        function getSize(uint256 id) public view returns (string memory) {\n                return rand(id, \"size\", sizes);\n        }\n\n        function getSurface(uint256 id) public view returns (string memory) {\n                return rand(id, \"shape\", sizes);\n        }\n\n        function getShape(uint256 id) public view returns (string memory) {\n                return rand(id, \"surface\", sizes);\n        }\n\n        function getPalette(uint256 id) public view returns (string[4] memory) {\n                string[4] memory palette;\n                palette[0] = rand(id, \"color 0\", colors);\n                palette[1] = rand(id, \"color 1\", colors);\n                palette[2] = rand(id, \"color 2\", colors);\n                palette[3] = rand(id, \"color 3\", colors);\n                return palette;\n        }\n\n        function toString(uint256 value) internal pure returns (string memory) {\n                if (value == 0) { return \"0\"; }\n                uint256 temp = value;\n                uint256 digits;\n                while (temp != 0) {\n                        digits++;\n                        temp /= 10;\n                }\n                bytes memory buffer = new bytes(digits);\n                while (value != 0) {\n                        digits -= 1;\n                        buffer[digits] = bytes1(uint8(48 + uint256(value % 10)));\n                        value /= 10;\n\n                }\n                return string(buffer);\n        }\n}\n",
  "sourcePath": "/Users/d/code/rove/SWEETS/contracts/SWEETS.sol",
  "compiler": {
    "name": "solc",
    "version": "0.8.17+commit.8df45f5f.Emscripten.clang"
  },
  "schemaVersion": "3.4.10",
  "updatedAt": "2022-11-01T00:35:40.376Z",
  "devdoc": {
    "kind": "dev",
    "methods": {
      "approve(address,uint256)": {
        "details": "See {IERC721-approve}."
      },
      "balanceOf(address)": {
        "details": "See {IERC721-balanceOf}."
      },
      "getApproved(uint256)": {
        "details": "See {IERC721-getApproved}."
      },
      "isApprovedForAll(address,address)": {
        "details": "See {IERC721-isApprovedForAll}."
      },
      "name()": {
        "details": "See {IERC721Metadata-name}."
      },
      "owner()": {
        "details": "Returns the address of the current owner."
      },
      "ownerOf(uint256)": {
        "details": "See {IERC721-ownerOf}."
      },
      "renounceOwnership()": {
        "details": "Leaves the contract without owner. It will not be possible to call `onlyOwner` functions anymore. Can only be called by the current owner. NOTE: Renouncing ownership will leave the contract without an owner, thereby removing any functionality that is only available to the owner."
      },
      "safeTransferFrom(address,address,uint256)": {
        "details": "See {IERC721-safeTransferFrom}."
      },
      "safeTransferFrom(address,address,uint256,bytes)": {
        "details": "See {IERC721-safeTransferFrom}."
      },
      "setApprovalForAll(address,bool)": {
        "details": "See {IERC721-setApprovalForAll}."
      },
      "supportsInterface(bytes4)": {
        "details": "See {IERC165-supportsInterface}."
      },
      "symbol()": {
        "details": "See {IERC721Metadata-symbol}."
      },
      "tokenURI(uint256)": {
        "details": "See {IERC721Metadata-tokenURI}."
      },
      "transferFrom(address,address,uint256)": {
        "details": "See {IERC721-transferFrom}."
      },
      "transferOwnership(address)": {
        "details": "Transfers ownership of the contract to a new account (`newOwner`). Can only be called by the current owner."
      }
    },
    "version": 1
  },
  "userdoc": {
    "kind": "user",
    "methods": {},
    "version": 1
  }
}