{
  "contractName": "SWEETS",
  "abi": [
    {
      "inputs": [],
      "stateMutability": "nonpayable",
      "type": "constructor"
    },
    {
      "anonymous": false,
      "inputs": [
        {
          "indexed": true,
          "internalType": "address",
          "name": "owner",
          "type": "address"
        },
        {
          "indexed": true,
          "internalType": "address",
          "name": "approved",
          "type": "address"
        },
        {
          "indexed": true,
          "internalType": "uint256",
          "name": "tokenId",
          "type": "uint256"
        }
      ],
      "name": "Approval",
      "type": "event"
    },
    {
      "anonymous": false,
      "inputs": [
        {
          "indexed": true,
          "internalType": "address",
          "name": "owner",
          "type": "address"
        },
        {
          "indexed": true,
          "internalType": "address",
          "name": "operator",
          "type": "address"
        },
        {
          "indexed": false,
          "internalType": "bool",
          "name": "approved",
          "type": "bool"
        }
      ],
      "name": "ApprovalForAll",
      "type": "event"
    },
    {
      "anonymous": false,
      "inputs": [
        {
          "indexed": true,
          "internalType": "address",
          "name": "previousOwner",
          "type": "address"
        },
        {
          "indexed": true,
          "internalType": "address",
          "name": "newOwner",
          "type": "address"
        }
      ],
      "name": "OwnershipTransferred",
      "type": "event"
    },
    {
      "anonymous": false,
      "inputs": [
        {
          "indexed": true,
          "internalType": "address",
          "name": "from",
          "type": "address"
        },
        {
          "indexed": true,
          "internalType": "address",
          "name": "to",
          "type": "address"
        },
        {
          "indexed": true,
          "internalType": "uint256",
          "name": "tokenId",
          "type": "uint256"
        }
      ],
      "name": "Transfer",
      "type": "event"
    },
    {
      "inputs": [],
      "name": "algorithm",
      "outputs": [
        {
          "internalType": "string",
          "name": "",
          "type": "string"
        }
      ],
      "stateMutability": "view",
      "type": "function"
    },
    {
      "inputs": [
        {
          "internalType": "address",
          "name": "to",
          "type": "address"
        },
        {
          "internalType": "uint256",
          "name": "tokenId",
          "type": "uint256"
        }
      ],
      "name": "approve",
      "outputs": [],
      "stateMutability": "nonpayable",
      "type": "function"
    },
    {
      "inputs": [
        {
          "internalType": "address",
          "name": "owner",
          "type": "address"
        }
      ],
      "name": "balanceOf",
      "outputs": [
        {
          "internalType": "uint256",
          "name": "",
          "type": "uint256"
        }
      ],
      "stateMutability": "view",
      "type": "function"
    },
    {
      "inputs": [
        {
          "internalType": "uint256",
          "name": "tokenId",
          "type": "uint256"
        }
      ],
      "name": "getApproved",
      "outputs": [
        {
          "internalType": "address",
          "name": "",
          "type": "address"
        }
      ],
      "stateMutability": "view",
      "type": "function"
    },
    {
      "inputs": [
        {
          "internalType": "address",
          "name": "owner",
          "type": "address"
        },
        {
          "internalType": "address",
          "name": "operator",
          "type": "address"
        }
      ],
      "name": "isApprovedForAll",
      "outputs": [
        {
          "internalType": "bool",
          "name": "",
          "type": "bool"
        }
      ],
      "stateMutability": "view",
      "type": "function"
    },
    {
      "inputs": [],
      "name": "name",
      "outputs": [
        {
          "internalType": "string",
          "name": "",
          "type": "string"
        }
      ],
      "stateMutability": "view",
      "type": "function"
    },
    {
      "inputs": [],
      "name": "owner",
      "outputs": [
        {
          "internalType": "address",
          "name": "",
          "type": "address"
        }
      ],
      "stateMutability": "view",
      "type": "function"
    },
    {
      "inputs": [
        {
          "internalType": "uint256",
          "name": "tokenId",
          "type": "uint256"
        }
      ],
      "name": "ownerOf",
      "outputs": [
        {
          "internalType": "address",
          "name": "",
          "type": "address"
        }
      ],
      "stateMutability": "view",
      "type": "function"
    },
    {
      "inputs": [],
      "name": "renounceOwnership",
      "outputs": [],
      "stateMutability": "nonpayable",
      "type": "function"
    },
    {
      "inputs": [
        {
          "internalType": "address",
          "name": "from",
          "type": "address"
        },
        {
          "internalType": "address",
          "name": "to",
          "type": "address"
        },
        {
          "internalType": "uint256",
          "name": "tokenId",
          "type": "uint256"
        }
      ],
      "name": "safeTransferFrom",
      "outputs": [],
      "stateMutability": "nonpayable",
      "type": "function"
    },
    {
      "inputs": [
        {
          "internalType": "address",
          "name": "from",
          "type": "address"
        },
        {
          "internalType": "address",
          "name": "to",
          "type": "address"
        },
        {
          "internalType": "uint256",
          "name": "tokenId",
          "type": "uint256"
        },
        {
          "internalType": "bytes",
          "name": "data",
          "type": "bytes"
        }
      ],
      "name": "safeTransferFrom",
      "outputs": [],
      "stateMutability": "nonpayable",
      "type": "function"
    },
    {
      "inputs": [
        {
          "internalType": "address",
          "name": "operator",
          "type": "address"
        },
        {
          "internalType": "bool",
          "name": "approved",
          "type": "bool"
        }
      ],
      "name": "setApprovalForAll",
      "outputs": [],
      "stateMutability": "nonpayable",
      "type": "function"
    },
    {
      "inputs": [
        {
          "internalType": "bytes4",
          "name": "interfaceId",
          "type": "bytes4"
        }
      ],
      "name": "supportsInterface",
      "outputs": [
        {
          "internalType": "bool",
          "name": "",
          "type": "bool"
        }
      ],
      "stateMutability": "view",
      "type": "function"
    },
    {
      "inputs": [],
      "name": "symbol",
      "outputs": [
        {
          "internalType": "string",
          "name": "",
          "type": "string"
        }
      ],
      "stateMutability": "view",
      "type": "function"
    },
    {
      "inputs": [
        {
          "internalType": "uint256",
          "name": "tokenId",
          "type": "uint256"
        }
      ],
      "name": "tokenURI",
      "outputs": [
        {
          "internalType": "string",
          "name": "",
          "type": "string"
        }
      ],
      "stateMutability": "view",
      "type": "function"
    },
    {
      "inputs": [
        {
          "internalType": "address",
          "name": "from",
          "type": "address"
        },
        {
          "internalType": "address",
          "name": "to",
          "type": "address"
        },
        {
          "internalType": "uint256",
          "name": "tokenId",
          "type": "uint256"
        }
      ],
      "name": "transferFrom",
      "outputs": [],
      "stateMutability": "nonpayable",
      "type": "function"
    },
    {
      "inputs": [
        {
          "internalType": "address",
          "name": "newOwner",
          "type": "address"
        }
      ],
      "name": "transferOwnership",
      "outputs": [],
      "stateMutability": "nonpayable",
      "type": "function"
    },
    {
      "inputs": [
        {
          "internalType": "string",
          "name": "algo",
          "type": "string"
        }
      ],
      "name": "setAlgo",
      "outputs": [],
      "stateMutability": "nonpayable",
      "type": "function"
    },
    {
      "inputs": [
        {
          "internalType": "uint256",
          "name": "id",
          "type": "uint256"
        }
      ],
      "name": "mint",
      "outputs": [],
      "stateMutability": "nonpayable",
      "type": "function"
    },
    {
      "inputs": [
        {
          "internalType": "uint256",
          "name": "id",
          "type": "uint256"
        }
      ],
      "name": "ownerMint",
      "outputs": [],
      "stateMutability": "nonpayable",
      "type": "function"
    },
    {
      "inputs": [
        {
          "internalType": "uint256",
          "name": "id",
          "type": "uint256"
        }
      ],
      "name": "getSize",
      "outputs": [
        {
          "internalType": "string",
          "name": "",
          "type": "string"
        }
      ],
      "stateMutability": "view",
      "type": "function"
    },
    {
      "inputs": [
        {
          "internalType": "uint256",
          "name": "id",
          "type": "uint256"
        }
      ],
      "name": "getSurface",
      "outputs": [
        {
          "internalType": "string",
          "name": "",
          "type": "string"
        }
      ],
      "stateMutability": "view",
      "type": "function"
    },
    {
      "inputs": [
        {
          "internalType": "uint256",
          "name": "id",
          "type": "uint256"
        }
      ],
      "name": "getShape",
      "outputs": [
        {
          "internalType": "string",
          "name": "",
          "type": "string"
        }
      ],
      "stateMutability": "view",
      "type": "function"
    },
    {
      "inputs": [
        {
          "internalType": "uint256",
          "name": "id",
          "type": "uint256"
        }
      ],
      "name": "getPalette",
      "outputs": [
        {
          "internalType": "string[4]",
          "name": "",
          "type": "string[4]"
        }
      ],
      "stateMutability": "view",
      "type": "function"
    }
  ],
  "bytecode": "0x60806040526040518060e001604052806040518060400160405280600881526020017f50696c6c6865616400000000000000000000000000000000000000000000000081525081526020016040518060400160405280600681526020017f536d696c6572000000000000000000000000000000000000000000000000000081525081526020016040518060400160405280600881526020017f5370656b7472616c00000000000000000000000000000000000000000000000081525081526020016040518060400160405280600581526020017f48656c697800000000000000000000000000000000000000000000000000000081525081526020016040518060400160405280600981526020017f546573736572616374000000000000000000000000000000000000000000000081525081526020016040518060400160405280600581526020017f546f72757300000000000000000000000000000000000000000000000000000081525081526020016040518060400160405280600781526020017f4f62656c69736b000000000000000000000000000000000000000000000000008152508152506008906007620001bc929190620008c0565b5060405180606001604052806040518060400160405280600681526020017f4e6962626c65000000000000000000000000000000000000000000000000000081525081526020016040518060400160405280600481526020017f426974650000000000000000000000000000000000000000000000000000000081525081526020016040518060400160405280600681526020017f4465766f7572000000000000000000000000000000000000000000000000000081525081525060099060036200028992919062000920565b5060405180606001604052806040518060400160405280600581526020017f687964726f00000000000000000000000000000000000000000000000000000081525081526020016040518060400160405280600681526020017f706c61746564000000000000000000000000000000000000000000000000000081525081526020016040518060400160405280600781526020017f74616374696c6500000000000000000000000000000000000000000000000000815250815250600a9060036200035692919062000920565b506040518061020001604052806040518060400160405280600781526020017f234537343334460000000000000000000000000000000000000000000000000081525081526020016040518060400160405280600781526020017f234537393733440000000000000000000000000000000000000000000000000081525081526020016040518060400160405280600781526020017f234537444334450000000000000000000000000000000000000000000000000081525081526020016040518060400160405280600781526020017f233543453735440000000000000000000000000000000000000000000000000081525081526020016040518060400160405280600781526020017f233239383145370000000000000000000000000000000000000000000000000081525081526020016040518060400160405280600781526020017f233544323145370000000000000000000000000000000000000000000000000081525081526020016040518060400160405280600781526020017f234537373745340000000000000000000000000000000000000000000000000081525081526020016040518060400160405280600781526020017f234537453745370000000000000000000000000000000000000000000000000081525081526020016040518060400160405280600781526020017f233331323632340000000000000000000000000000000000000000000000000081525081526020016040518060400160405280600781526020017f234537393639460000000000000000000000000000000000000000000000000081525081526020016040518060400160405280600781526020017f234537423237370000000000000000000000000000000000000000000000000081525081526020016040518060400160405280600781526020017f234537444438460000000000000000000000000000000000000000000000000081525081526020016040518060400160405280600781526020017f233843453743330000000000000000000000000000000000000000000000000081525081526020016040518060400160405280600781526020017f233837423245370000000000000000000000000000000000000000000000000081525081526020016040518060400160405280600781526020017f234130383245370000000000000000000000000000000000000000000000000081525081526020016040518060400160405280600781526020017f2345344237453700000000000000000000000000000000000000000000000000815250815250600b9060106200072392919062000980565b503480156200073157600080fd5b506040518060400160405280600681526020017f53574545545300000000000000000000000000000000000000000000000000008152506040518060400160405280600681526020017f53574545545300000000000000000000000000000000000000000000000000008152508160009081620007af919062000ce7565b508060019081620007c1919062000ce7565b505050620007e4620007d8620007f260201b60201c565b620007fa60201b60201c565b600160078190555062000dce565b600033905090565b6000600660009054906101000a900473ffffffffffffffffffffffffffffffffffffffff16905081600660006101000a81548173ffffffffffffffffffffffffffffffffffffffff021916908373ffffffffffffffffffffffffffffffffffffffff1602179055508173ffffffffffffffffffffffffffffffffffffffff168173ffffffffffffffffffffffffffffffffffffffff167f8be0079c531659141344cd1fd0a4f28419497f9722a3daafe3b4186f6b6457e060405160405180910390a35050565b8280548282559060005260206000209081019282156200090d579160200282015b828111156200090c578251829081620008fb919062000ce7565b5091602001919060010190620008e1565b5b5090506200091c9190620009e0565b5090565b8280548282559060005260206000209081019282156200096d579160200282015b828111156200096c5782518290816200095b919062000ce7565b509160200191906001019062000941565b5b5090506200097c9190620009e0565b5090565b828054828255906000526020600020908101928215620009cd579160200282015b82811115620009cc578251829081620009bb919062000ce7565b5091602001919060010190620009a1565b5b509050620009dc9190620009e0565b5090565b5b8082111562000a045760008181620009fa919062000a08565b50600101620009e1565b5090565b50805462000a169062000ad6565b6000825580601f1062000a2a575062000a4b565b601f01602090049060005260206000209081019062000a4a919062000a4e565b5b50565b5b8082111562000a6957600081600090555060010162000a4f565b5090565b600081519050919050565b7f4e487b7100000000000000000000000000000000000000000000000000000000600052604160045260246000fd5b7f4e487b7100000000000000000000000000000000000000000000000000000000600052602260045260246000fd5b6000600282049050600182168062000aef57607f821691505b60208210810362000b055762000b0462000aa7565b5b50919050565b60008190508160005260206000209050919050565b60006020601f8301049050919050565b600082821b905092915050565b60006008830262000b6f7fffffffffffffffffffffffffffffffffffffffffffffffffffffffffffffffff8262000b30565b62000b7b868362000b30565b95508019841693508086168417925050509392505050565b6000819050919050565b6000819050919050565b600062000bc862000bc262000bbc8462000b93565b62000b9d565b62000b93565b9050919050565b6000819050919050565b62000be48362000ba7565b62000bfc62000bf38262000bcf565b84845462000b3d565b825550505050565b600090565b62000c1362000c04565b62000c2081848462000bd9565b505050565b5b8181101562000c485762000c3c60008262000c09565b60018101905062000c26565b5050565b601f82111562000c975762000c618162000b0b565b62000c6c8462000b20565b8101602085101562000c7c578190505b62000c9462000c8b8562000b20565b83018262000c25565b50505b505050565b600082821c905092915050565b600062000cbc6000198460080262000c9c565b1980831691505092915050565b600062000cd7838362000ca9565b9150826002028217905092915050565b62000cf28262000a6d565b67ffffffffffffffff81111562000d0e5762000d0d62000a78565b5b62000d1a825462000ad6565b62000d2782828562000c4c565b600060209050601f83116001811462000d5f576000841562000d4a578287015190505b62000d56858262000cc9565b86555062000dc6565b601f19841662000d6f8662000b0b565b60005b8281101562000d995784890151825560018201915060208501945060208101905062000d72565b8683101562000db9578489015162000db5601f89168262000ca9565b8355505b6001600288020188555050505b505050505050565b613a2e8062000dde6000396000f3fe608060405234801561001057600080fd5b50600436106101585760003560e01c80636352211e116100c3578063a22cb4651161007c578063a22cb465146103eb578063b88d4fde14610407578063c87b56dd14610423578063e985e9c514610453578063f19e75d414610483578063f2fde38b1461049f57610158565b80636352211e1461032957806370a0823114610359578063715018a6146103895780638da5cb5b1461039357806395d89b41146103b1578063a0712d68146103cf57610158565b806311ad80471161011557806311ad80471461024357806322ced7211461027357806323b872dd146102a35780632e58ca46146102bf57806342842e0e146102dd578063505e570a146102f957610158565b806301ffc9a71461015d578063023c23db1461018d57806306fdde03146101bd5780630764da1d146101db578063081812fc146101f7578063095ea7b314610227575b600080fd5b610177600480360381019061017291906125c6565b6104bb565b604051610184919061260e565b60405180910390f35b6101a760048036038101906101a2919061265f565b61059d565b6040516101b4919061271c565b60405180910390f35b6101c56106b7565b6040516101d2919061271c565b60405180910390f35b6101f560048036038101906101f09190612873565b610749565b005b610211600480360381019061020c919061265f565b610764565b60405161021e91906128fd565b60405180910390f35b610241600480360381019061023c9190612944565b6107aa565b005b61025d6004803603810190610258919061265f565b6108c1565b60405161026a919061271c565b60405180910390f35b61028d6004803603810190610288919061265f565b6109db565b60405161029a919061271c565b60405180910390f35b6102bd60048036038101906102b89190612984565b610af5565b005b6102c7610b55565b6040516102d4919061271c565b60405180910390f35b6102f760048036038101906102f29190612984565b610be3565b005b610313600480360381019061030e919061265f565b610c03565b6040516103209190612ad7565b60405180910390f35b610343600480360381019061033e919061265f565b6110d0565b60405161035091906128fd565b60405180910390f35b610373600480360381019061036e9190612af9565b611181565b6040516103809190612b35565b60405180910390f35b610391611238565b005b61039b61124c565b6040516103a891906128fd565b60405180910390f35b6103b9611276565b6040516103c6919061271c565b60405180910390f35b6103e960048036038101906103e4919061265f565b611308565b005b61040560048036038101906104009190612b7c565b611385565b005b610421600480360381019061041c9190612c5d565b61139b565b005b61043d6004803603810190610438919061265f565b6113fd565b60405161044a919061271c565b60405180910390f35b61046d60048036038101906104689190612ce0565b611465565b60405161047a919061260e565b60405180910390f35b61049d6004803603810190610498919061265f565b6114f9565b005b6104b960048036038101906104b49190612af9565b61157f565b005b60007f80ac58cd000000000000000000000000000000000000000000000000000000007bffffffffffffffffffffffffffffffffffffffffffffffffffffffff1916827bffffffffffffffffffffffffffffffffffffffffffffffffffffffff1916148061058657507f5b5e139f000000000000000000000000000000000000000000000000000000007bffffffffffffffffffffffffffffffffffffffffffffffffffffffff1916827bffffffffffffffffffffffffffffffffffffffffffffffffffffffff1916145b80610596575061059582611602565b5b9050919050565b60606106b0826040518060400160405280600481526020017f73697a65000000000000000000000000000000000000000000000000000000008152506009805480602002602001604051908101604052809291908181526020016000905b828210156106a757838290600052602060002001805461061a90612d4f565b80601f016020809104026020016040519081016040528092919081815260200182805461064690612d4f565b80156106935780601f1061066857610100808354040283529160200191610693565b820191906000526020600020905b81548152906001019060200180831161067657829003601f168201915b5050505050815260200190600101906105fb565b5050505061166c565b9050919050565b6060600080546106c690612d4f565b80601f01602080910402602001604051908101604052809291908181526020018280546106f290612d4f565b801561073f5780601f106107145761010080835404028352916020019161073f565b820191906000526020600020905b81548152906001019060200180831161072257829003601f168201915b5050505050905090565b6107516116d7565b80600c90816107609190612f2c565b5050565b600061076f82611755565b6004600083815260200190815260200160002060009054906101000a900473ffffffffffffffffffffffffffffffffffffffff169050919050565b60006107b5826110d0565b90508073ffffffffffffffffffffffffffffffffffffffff168373ffffffffffffffffffffffffffffffffffffffff1603610825576040517f08c379a000000000000000000000000000000000000000000000000000000000815260040161081c90613070565b60405180910390fd5b8073ffffffffffffffffffffffffffffffffffffffff166108446117a0565b73ffffffffffffffffffffffffffffffffffffffff16148061087357506108728161086d6117a0565b611465565b5b6108b2576040517f08c379a00000000000000000000000000000000000000000000000000000000081526004016108a990613102565b60405180910390fd5b6108bc83836117a8565b505050565b60606109d4826040518060400160405280600581526020017f73686170650000000000000000000000000000000000000000000000000000008152506009805480602002602001604051908101604052809291908181526020016000905b828210156109cb57838290600052602060002001805461093e90612d4f565b80601f016020809104026020016040519081016040528092919081815260200182805461096a90612d4f565b80156109b75780601f1061098c576101008083540402835291602001916109b7565b820191906000526020600020905b81548152906001019060200180831161099a57829003601f168201915b50505050508152602001906001019061091f565b5050505061166c565b9050919050565b6060610aee826040518060400160405280600781526020017f73757266616365000000000000000000000000000000000000000000000000008152506009805480602002602001604051908101604052809291908181526020016000905b82821015610ae5578382906000526020600020018054610a5890612d4f565b80601f0160208091040260200160405190810160405280929190818152602001828054610a8490612d4f565b8015610ad15780601f10610aa657610100808354040283529160200191610ad1565b820191906000526020600020905b815481529060010190602001808311610ab457829003601f168201915b505050505081526020019060010190610a39565b5050505061166c565b9050919050565b610b06610b006117a0565b82611861565b610b45576040517f08c379a0000000000000000000000000000000000000000000000000000000008152600401610b3c90613194565b60405180910390fd5b610b508383836118f6565b505050565b600c8054610b6290612d4f565b80601f0160208091040260200160405190810160405280929190818152602001828054610b8e90612d4f565b8015610bdb5780601f10610bb057610100808354040283529160200191610bdb565b820191906000526020600020905b815481529060010190602001808311610bbe57829003601f168201915b505050505081565b610bfe8383836040518060200160405280600081525061139b565b505050565b610c0b612533565b610c13612533565b610d24836040518060400160405280600781526020017f636f6c6f72203000000000000000000000000000000000000000000000000000815250600b805480602002602001604051908101604052809291908181526020016000905b82821015610d1b578382906000526020600020018054610c8e90612d4f565b80601f0160208091040260200160405190810160405280929190818152602001828054610cba90612d4f565b8015610d075780601f10610cdc57610100808354040283529160200191610d07565b820191906000526020600020905b815481529060010190602001808311610cea57829003601f168201915b505050505081526020019060010190610c6f565b5050505061166c565b81600060048110610d3857610d376131b4565b5b6020020181905250610e51836040518060400160405280600781526020017f636f6c6f72203100000000000000000000000000000000000000000000000000815250600b805480602002602001604051908101604052809291908181526020016000905b82821015610e48578382906000526020600020018054610dbb90612d4f565b80601f0160208091040260200160405190810160405280929190818152602001828054610de790612d4f565b8015610e345780601f10610e0957610100808354040283529160200191610e34565b820191906000526020600020905b815481529060010190602001808311610e1757829003601f168201915b505050505081526020019060010190610d9c565b5050505061166c565b81600160048110610e6557610e646131b4565b5b6020020181905250610f7e836040518060400160405280600781526020017f636f6c6f72203200000000000000000000000000000000000000000000000000815250600b805480602002602001604051908101604052809291908181526020016000905b82821015610f75578382906000526020600020018054610ee890612d4f565b80601f0160208091040260200160405190810160405280929190818152602001828054610f1490612d4f565b8015610f615780601f10610f3657610100808354040283529160200191610f61565b820191906000526020600020905b815481529060010190602001808311610f4457829003601f168201915b505050505081526020019060010190610ec9565b5050505061166c565b81600260048110610f9257610f916131b4565b5b60200201819052506110ab836040518060400160405280600781526020017f636f6c6f72203300000000000000000000000000000000000000000000000000815250600b805480602002602001604051908101604052809291908181526020016000905b828210156110a257838290600052602060002001805461101590612d4f565b80601f016020809104026020016040519081016040528092919081815260200182805461104190612d4f565b801561108e5780601f106110635761010080835404028352916020019161108e565b820191906000526020600020905b81548152906001019060200180831161107157829003601f168201915b505050505081526020019060010190610ff6565b5050505061166c565b816003600481106110bf576110be6131b4565b5b602002018190525080915050919050565b6000806002600084815260200190815260200160002060009054906101000a900473ffffffffffffffffffffffffffffffffffffffff169050600073ffffffffffffffffffffffffffffffffffffffff168173ffffffffffffffffffffffffffffffffffffffff1603611178576040517f08c379a000000000000000000000000000000000000000000000000000000000815260040161116f9061322f565b60405180910390fd5b80915050919050565b60008073ffffffffffffffffffffffffffffffffffffffff168273ffffffffffffffffffffffffffffffffffffffff16036111f1576040517f08c379a00000000000000000000000000000000000000000000000000000000081526004016111e8906132c1565b60405180910390fd5b600360008373ffffffffffffffffffffffffffffffffffffffff1673ffffffffffffffffffffffffffffffffffffffff168152602001908152602001600020549050919050565b6112406116d7565b61124a6000611b5c565b565b6000600660009054906101000a900473ffffffffffffffffffffffffffffffffffffffff16905090565b60606001805461128590612d4f565b80601f01602080910402602001604051908101604052809291908181526020018280546112b190612d4f565b80156112fe5780601f106112d3576101008083540402835291602001916112fe565b820191906000526020600020905b8154815290600101906020018083116112e157829003601f168201915b5050505050905090565b60026007540361134d576040517f08c379a00000000000000000000000000000000000000000000000000000000081526004016113449061332d565b60405180910390fd5b600260078190555060008111801561136757506111948111155b61137057600080fd5b61137a3382611c22565b600160078190555050565b6113976113906117a0565b8383611c40565b5050565b6113ac6113a66117a0565b83611861565b6113eb576040517f08c379a00000000000000000000000000000000000000000000000000000000081526004016113e290613194565b60405180910390fd5b6113f784848484611dac565b50505050565b606061140882611755565b6000611412611e08565b90506000815111611432576040518060200160405280600081525061145d565b8061143c84611e1f565b60405160200161144d929190613389565b6040516020818303038152906040525b915050919050565b6000600560008473ffffffffffffffffffffffffffffffffffffffff1673ffffffffffffffffffffffffffffffffffffffff16815260200190815260200160002060008373ffffffffffffffffffffffffffffffffffffffff1673ffffffffffffffffffffffffffffffffffffffff16815260200190815260200160002060009054906101000a900460ff16905092915050565b60026007540361153e576040517f08c379a00000000000000000000000000000000000000000000000000000000081526004016115359061332d565b60405180910390fd5b600260078190555061154e6116d7565b6111948111801561156157506113888111155b61156a57600080fd5b6115743382611c22565b600160078190555050565b6115876116d7565b600073ffffffffffffffffffffffffffffffffffffffff168173ffffffffffffffffffffffffffffffffffffffff16036115f6576040517f08c379a00000000000000000000000000000000000000000000000000000000081526004016115ed9061341f565b60405180910390fd5b6115ff81611b5c565b50565b60007f01ffc9a7000000000000000000000000000000000000000000000000000000007bffffffffffffffffffffffffffffffffffffffffffffffffffffffff1916827bffffffffffffffffffffffffffffffffffffffffffffffffffffffff1916149050919050565b606060008361167a86611f7f565b60405160200161168b929190613389565b6040516020818303038152906040528051906020012060001c9050828351826116b4919061346e565b815181106116c5576116c46131b4565b5b60200260200101519150509392505050565b6116df6117a0565b73ffffffffffffffffffffffffffffffffffffffff166116fd61124c565b73ffffffffffffffffffffffffffffffffffffffff1614611753576040517f08c379a000000000000000000000000000000000000000000000000000000000815260040161174a906134eb565b60405180910390fd5b565b61175e816120df565b61179d576040517f08c379a00000000000000000000000000000000000000000000000000000000081526004016117949061322f565b60405180910390fd5b50565b600033905090565b816004600083815260200190815260200160002060006101000a81548173ffffffffffffffffffffffffffffffffffffffff021916908373ffffffffffffffffffffffffffffffffffffffff160217905550808273ffffffffffffffffffffffffffffffffffffffff1661181b836110d0565b73ffffffffffffffffffffffffffffffffffffffff167f8c5be1e5ebec7d5bd14f71427d1e84f3dd0314c0f7b2291e5b200ac8c7c3b92560405160405180910390a45050565b60008061186d836110d0565b90508073ffffffffffffffffffffffffffffffffffffffff168473ffffffffffffffffffffffffffffffffffffffff1614806118af57506118ae8185611465565b5b806118ed57508373ffffffffffffffffffffffffffffffffffffffff166118d584610764565b73ffffffffffffffffffffffffffffffffffffffff16145b91505092915050565b8273ffffffffffffffffffffffffffffffffffffffff16611916826110d0565b73ffffffffffffffffffffffffffffffffffffffff161461196c576040517f08c379a00000000000000000000000000000000000000000000000000000000081526004016119639061357d565b60405180910390fd5b600073ffffffffffffffffffffffffffffffffffffffff168273ffffffffffffffffffffffffffffffffffffffff16036119db576040517f08c379a00000000000000000000000000000000000000000000000000000000081526004016119d29061360f565b60405180910390fd5b6119e683838361214b565b6119f16000826117a8565b6001600360008573ffffffffffffffffffffffffffffffffffffffff1673ffffffffffffffffffffffffffffffffffffffff1681526020019081526020016000206000828254611a41919061365e565b925050819055506001600360008473ffffffffffffffffffffffffffffffffffffffff1673ffffffffffffffffffffffffffffffffffffffff1681526020019081526020016000206000828254611a989190613692565b92505081905550816002600083815260200190815260200160002060006101000a81548173ffffffffffffffffffffffffffffffffffffffff021916908373ffffffffffffffffffffffffffffffffffffffff160217905550808273ffffffffffffffffffffffffffffffffffffffff168473ffffffffffffffffffffffffffffffffffffffff167fddf252ad1be2c89b69c2b068fc378daa952ba7f163c4a11628f55a4df523b3ef60405160405180910390a4611b57838383612150565b505050565b6000600660009054906101000a900473ffffffffffffffffffffffffffffffffffffffff16905081600660006101000a81548173ffffffffffffffffffffffffffffffffffffffff021916908373ffffffffffffffffffffffffffffffffffffffff1602179055508173ffffffffffffffffffffffffffffffffffffffff168173ffffffffffffffffffffffffffffffffffffffff167f8be0079c531659141344cd1fd0a4f28419497f9722a3daafe3b4186f6b6457e060405160405180910390a35050565b611c3c828260405180602001604052806000815250612155565b5050565b8173ffffffffffffffffffffffffffffffffffffffff168373ffffffffffffffffffffffffffffffffffffffff1603611cae576040517f08c379a0000000000000000000000000000000000000000000000000000000008152600401611ca590613712565b60405180910390fd5b80600560008573ffffffffffffffffffffffffffffffffffffffff1673ffffffffffffffffffffffffffffffffffffffff16815260200190815260200160002060008473ffffffffffffffffffffffffffffffffffffffff1673ffffffffffffffffffffffffffffffffffffffff16815260200190815260200160002060006101000a81548160ff0219169083151502179055508173ffffffffffffffffffffffffffffffffffffffff168373ffffffffffffffffffffffffffffffffffffffff167f17307eab39ab6107e8899845ad3d59bd9653f200f220920489ca2b5937696c3183604051611d9f919061260e565b60405180910390a3505050565b611db78484846118f6565b611dc3848484846121b0565b611e02576040517f08c379a0000000000000000000000000000000000000000000000000000000008152600401611df9906137a4565b60405180910390fd5b50505050565b606060405180602001604052806000815250905090565b606060008203611e66576040518060400160405280600181526020017f30000000000000000000000000000000000000000000000000000000000000008152509050611f7a565b600082905060005b60008214611e98578080611e81906137c4565b915050600a82611e91919061380c565b9150611e6e565b60008167ffffffffffffffff811115611eb457611eb3612748565b5b6040519080825280601f01601f191660200182016040528015611ee65781602001600182028036833780820191505090505b5090505b60008514611f7357600182611eff919061365e565b9150600a85611f0e919061346e565b6030611f1a9190613692565b60f81b818381518110611f3057611f2f6131b4565b5b60200101907effffffffffffffffffffffffffffffffffffffffffffffffffffffffffffff1916908160001a905350600a85611f6c919061380c565b9450611eea565b8093505050505b919050565b606060008203611fc6576040518060400160405280600181526020017f300000000000000000000000000000000000000000000000000000000000000081525090506120da565b600082905060005b60008214611ff8578080611fe1906137c4565b915050600a82611ff1919061380c565b9150611fce565b60008167ffffffffffffffff81111561201457612013612748565b5b6040519080825280601f01601f1916602001820160405280156120465781602001600182028036833780820191505090505b5090505b600085146120d35760018261205f919061365e565b9150600a8561206e919061346e565b603061207a9190613692565b60f81b8183815181106120905761208f6131b4565b5b60200101907effffffffffffffffffffffffffffffffffffffffffffffffffffffffffffff1916908160001a905350600a856120cc919061380c565b945061204a565b8093505050505b919050565b60008073ffffffffffffffffffffffffffffffffffffffff166002600084815260200190815260200160002060009054906101000a900473ffffffffffffffffffffffffffffffffffffffff1673ffffffffffffffffffffffffffffffffffffffff1614159050919050565b505050565b505050565b61215f8383612337565b61216c60008484846121b0565b6121ab576040517f08c379a00000000000000000000000000000000000000000000000000000000081526004016121a2906137a4565b60405180910390fd5b505050565b60006121d18473ffffffffffffffffffffffffffffffffffffffff16612510565b1561232a578373ffffffffffffffffffffffffffffffffffffffff1663150b7a026121fa6117a0565b8786866040518563ffffffff1660e01b815260040161221c9493929190613892565b6020604051808303816000875af192505050801561225857506040513d601f19601f8201168201806040525081019061225591906138f3565b60015b6122da573d8060008114612288576040519150601f19603f3d011682016040523d82523d6000602084013e61228d565b606091505b5060008151036122d2576040517f08c379a00000000000000000000000000000000000000000000000000000000081526004016122c9906137a4565b60405180910390fd5b805181602001fd5b63150b7a0260e01b7bffffffffffffffffffffffffffffffffffffffffffffffffffffffff1916817bffffffffffffffffffffffffffffffffffffffffffffffffffffffff19161491505061232f565b600190505b949350505050565b600073ffffffffffffffffffffffffffffffffffffffff168273ffffffffffffffffffffffffffffffffffffffff16036123a6576040517f08c379a000000000000000000000000000000000000000000000000000000000815260040161239d9061396c565b60405180910390fd5b6123af816120df565b156123ef576040517f08c379a00000000000000000000000000000000000000000000000000000000081526004016123e6906139d8565b60405180910390fd5b6123fb6000838361214b565b6001600360008473ffffffffffffffffffffffffffffffffffffffff1673ffffffffffffffffffffffffffffffffffffffff168152602001908152602001600020600082825461244b9190613692565b92505081905550816002600083815260200190815260200160002060006101000a81548173ffffffffffffffffffffffffffffffffffffffff021916908373ffffffffffffffffffffffffffffffffffffffff160217905550808273ffffffffffffffffffffffffffffffffffffffff16600073ffffffffffffffffffffffffffffffffffffffff167fddf252ad1be2c89b69c2b068fc378daa952ba7f163c4a11628f55a4df523b3ef60405160405180910390a461250c60008383612150565b5050565b6000808273ffffffffffffffffffffffffffffffffffffffff163b119050919050565b60405180608001604052806004905b60608152602001906001900390816125425790505090565b6000604051905090565b600080fd5b600080fd5b60007fffffffff0000000000000000000000000000000000000000000000000000000082169050919050565b6125a38161256e565b81146125ae57600080fd5b50565b6000813590506125c08161259a565b92915050565b6000602082840312156125dc576125db612564565b5b60006125ea848285016125b1565b91505092915050565b60008115159050919050565b612608816125f3565b82525050565b600060208201905061262360008301846125ff565b92915050565b6000819050919050565b61263c81612629565b811461264757600080fd5b50565b60008135905061265981612633565b92915050565b60006020828403121561267557612674612564565b5b60006126838482850161264a565b91505092915050565b600081519050919050565b600082825260208201905092915050565b60005b838110156126c65780820151818401526020810190506126ab565b60008484015250505050565b6000601f19601f8301169050919050565b60006126ee8261268c565b6126f88185612697565b93506127088185602086016126a8565b612711816126d2565b840191505092915050565b6000602082019050818103600083015261273681846126e3565b905092915050565b600080fd5b600080fd5b7f4e487b7100000000000000000000000000000000000000000000000000000000600052604160045260246000fd5b612780826126d2565b810181811067ffffffffffffffff8211171561279f5761279e612748565b5b80604052505050565b60006127b261255a565b90506127be8282612777565b919050565b600067ffffffffffffffff8211156127de576127dd612748565b5b6127e7826126d2565b9050602081019050919050565b82818337600083830152505050565b6000612816612811846127c3565b6127a8565b90508281526020810184848401111561283257612831612743565b5b61283d8482856127f4565b509392505050565b600082601f83011261285a5761285961273e565b5b813561286a848260208601612803565b91505092915050565b60006020828403121561288957612888612564565b5b600082013567ffffffffffffffff8111156128a7576128a6612569565b5b6128b384828501612845565b91505092915050565b600073ffffffffffffffffffffffffffffffffffffffff82169050919050565b60006128e7826128bc565b9050919050565b6128f7816128dc565b82525050565b600060208201905061291260008301846128ee565b92915050565b612921816128dc565b811461292c57600080fd5b50565b60008135905061293e81612918565b92915050565b6000806040838503121561295b5761295a612564565b5b60006129698582860161292f565b925050602061297a8582860161264a565b9150509250929050565b60008060006060848603121561299d5761299c612564565b5b60006129ab8682870161292f565b93505060206129bc8682870161292f565b92505060406129cd8682870161264a565b9150509250925092565b600060049050919050565b600081905092915050565b6000819050919050565b600082825260208201905092915050565b6000612a138261268c565b612a1d81856129f7565b9350612a2d8185602086016126a8565b612a36816126d2565b840191505092915050565b6000612a4d8383612a08565b905092915050565b6000602082019050919050565b6000612a6d826129d7565b612a7781856129e2565b935083602082028501612a89856129ed565b8060005b85811015612ac55784840389528151612aa68582612a41565b9450612ab183612a55565b925060208a01995050600181019050612a8d565b50829750879550505050505092915050565b60006020820190508181036000830152612af18184612a62565b905092915050565b600060208284031215612b0f57612b0e612564565b5b6000612b1d8482850161292f565b91505092915050565b612b2f81612629565b82525050565b6000602082019050612b4a6000830184612b26565b92915050565b612b59816125f3565b8114612b6457600080fd5b50565b600081359050612b7681612b50565b92915050565b60008060408385031215612b9357612b92612564565b5b6000612ba18582860161292f565b9250506020612bb285828601612b67565b9150509250929050565b600067ffffffffffffffff821115612bd757612bd6612748565b5b612be0826126d2565b9050602081019050919050565b6000612c00612bfb84612bbc565b6127a8565b905082815260208101848484011115612c1c57612c1b612743565b5b612c278482856127f4565b509392505050565b600082601f830112612c4457612c4361273e565b5b8135612c54848260208601612bed565b91505092915050565b60008060008060808587031215612c7757612c76612564565b5b6000612c858782880161292f565b9450506020612c968782880161292f565b9350506040612ca78782880161264a565b925050606085013567ffffffffffffffff811115612cc857612cc7612569565b5b612cd487828801612c2f565b91505092959194509250565b60008060408385031215612cf757612cf6612564565b5b6000612d058582860161292f565b9250506020612d168582860161292f565b9150509250929050565b7f4e487b7100000000000000000000000000000000000000000000000000000000600052602260045260246000fd5b60006002820490506001821680612d6757607f821691505b602082108103612d7a57612d79612d20565b5b50919050565b60008190508160005260206000209050919050565b60006020601f8301049050919050565b600082821b905092915050565b600060088302612de27fffffffffffffffffffffffffffffffffffffffffffffffffffffffffffffffff82612da5565b612dec8683612da5565b95508019841693508086168417925050509392505050565b6000819050919050565b6000612e29612e24612e1f84612629565b612e04565b612629565b9050919050565b6000819050919050565b612e4383612e0e565b612e57612e4f82612e30565b848454612db2565b825550505050565b600090565b612e6c612e5f565b612e77818484612e3a565b505050565b5b81811015612e9b57612e90600082612e64565b600181019050612e7d565b5050565b601f821115612ee057612eb181612d80565b612eba84612d95565b81016020851015612ec9578190505b612edd612ed585612d95565b830182612e7c565b50505b505050565b600082821c905092915050565b6000612f0360001984600802612ee5565b1980831691505092915050565b6000612f1c8383612ef2565b9150826002028217905092915050565b612f358261268c565b67ffffffffffffffff811115612f4e57612f4d612748565b5b612f588254612d4f565b612f63828285612e9f565b600060209050601f831160018114612f965760008415612f84578287015190505b612f8e8582612f10565b865550612ff6565b601f198416612fa486612d80565b60005b82811015612fcc57848901518255600182019150602085019450602081019050612fa7565b86831015612fe95784890151612fe5601f891682612ef2565b8355505b6001600288020188555050505b505050505050565b7f4552433732313a20617070726f76616c20746f2063757272656e74206f776e6560008201527f7200000000000000000000000000000000000000000000000000000000000000602082015250565b600061305a602183612697565b915061306582612ffe565b604082019050919050565b600060208201905081810360008301526130898161304d565b9050919050565b7f4552433732313a20617070726f76652063616c6c6572206973206e6f7420746f60008201527f6b656e206f776e6572206e6f7220617070726f76656420666f7220616c6c0000602082015250565b60006130ec603e83612697565b91506130f782613090565b604082019050919050565b6000602082019050818103600083015261311b816130df565b9050919050565b7f4552433732313a2063616c6c6572206973206e6f7420746f6b656e206f776e6560008201527f72206e6f7220617070726f766564000000000000000000000000000000000000602082015250565b600061317e602e83612697565b915061318982613122565b604082019050919050565b600060208201905081810360008301526131ad81613171565b9050919050565b7f4e487b7100000000000000000000000000000000000000000000000000000000600052603260045260246000fd5b7f4552433732313a20696e76616c696420746f6b656e2049440000000000000000600082015250565b6000613219601883612697565b9150613224826131e3565b602082019050919050565b600060208201905081810360008301526132488161320c565b9050919050565b7f4552433732313a2061646472657373207a65726f206973206e6f74206120766160008201527f6c6964206f776e65720000000000000000000000000000000000000000000000602082015250565b60006132ab602983612697565b91506132b68261324f565b604082019050919050565b600060208201905081810360008301526132da8161329e565b9050919050565b7f5265656e7472616e637947756172643a207265656e7472616e742063616c6c00600082015250565b6000613317601f83612697565b9150613322826132e1565b602082019050919050565b600060208201905081810360008301526133468161330a565b9050919050565b600081905092915050565b60006133638261268c565b61336d818561334d565b935061337d8185602086016126a8565b80840191505092915050565b60006133958285613358565b91506133a18284613358565b91508190509392505050565b7f4f776e61626c653a206e6577206f776e657220697320746865207a65726f206160008201527f6464726573730000000000000000000000000000000000000000000000000000602082015250565b6000613409602683612697565b9150613414826133ad565b604082019050919050565b60006020820190508181036000830152613438816133fc565b9050919050565b7f4e487b7100000000000000000000000000000000000000000000000000000000600052601260045260246000fd5b600061347982612629565b915061348483612629565b9250826134945761349361343f565b5b828206905092915050565b7f4f776e61626c653a2063616c6c6572206973206e6f7420746865206f776e6572600082015250565b60006134d5602083612697565b91506134e08261349f565b602082019050919050565b60006020820190508181036000830152613504816134c8565b9050919050565b7f4552433732313a207472616e736665722066726f6d20696e636f72726563742060008201527f6f776e6572000000000000000000000000000000000000000000000000000000602082015250565b6000613567602583612697565b91506135728261350b565b604082019050919050565b600060208201905081810360008301526135968161355a565b9050919050565b7f4552433732313a207472616e7366657220746f20746865207a65726f2061646460008201527f7265737300000000000000000000000000000000000000000000000000000000602082015250565b60006135f9602483612697565b91506136048261359d565b604082019050919050565b60006020820190508181036000830152613628816135ec565b9050919050565b7f4e487b7100000000000000000000000000000000000000000000000000000000600052601160045260246000fd5b600061366982612629565b915061367483612629565b925082820390508181111561368c5761368b61362f565b5b92915050565b600061369d82612629565b91506136a883612629565b92508282019050808211156136c0576136bf61362f565b5b92915050565b7f4552433732313a20617070726f766520746f2063616c6c657200000000000000600082015250565b60006136fc601983612697565b9150613707826136c6565b602082019050919050565b6000602082019050818103600083015261372b816136ef565b9050919050565b7f4552433732313a207472616e7366657220746f206e6f6e20455243373231526560008201527f63656976657220696d706c656d656e7465720000000000000000000000000000602082015250565b600061378e603283612697565b915061379982613732565b604082019050919050565b600060208201905081810360008301526137bd81613781565b9050919050565b60006137cf82612629565b91507fffffffffffffffffffffffffffffffffffffffffffffffffffffffffffffffff82036138015761380061362f565b5b600182019050919050565b600061381782612629565b915061382283612629565b9250826138325761383161343f565b5b828204905092915050565b600081519050919050565b600082825260208201905092915050565b60006138648261383d565b61386e8185613848565b935061387e8185602086016126a8565b613887816126d2565b840191505092915050565b60006080820190506138a760008301876128ee565b6138b460208301866128ee565b6138c16040830185612b26565b81810360608301526138d38184613859565b905095945050505050565b6000815190506138ed8161259a565b92915050565b60006020828403121561390957613908612564565b5b6000613917848285016138de565b91505092915050565b7f4552433732313a206d696e7420746f20746865207a65726f2061646472657373600082015250565b6000613956602083612697565b915061396182613920565b602082019050919050565b6000602082019050818103600083015261398581613949565b9050919050565b7f4552433732313a20746f6b656e20616c7265616479206d696e74656400000000600082015250565b60006139c2601c83612697565b91506139cd8261398c565b602082019050919050565b600060208201905081810360008301526139f1816139b5565b905091905056fea2646970667358221220e0dd5a68d17221becd8178405de4467543360cd6cf412bb75986427e70a7302164736f6c63430008110033",
  "immutableReferences": {},
  "source": "// SPDX-License-Identifier: MIT\npragma solidity ^0.8.13;\n\nimport \"@openzeppelin/contracts/token/ERC721/ERC721.sol\";\nimport \"@openzeppelin/contracts/access/Ownable.sol\";\nimport \"@openzeppelin/contracts/security/ReentrancyGuard.sol\";\n\ncontract SWEETS is ERC721, Ownable, ReentrancyGuard {\n\n        string[] private shapes = [\n                \"Pillhead\",\n                \"Smiler\",\n                \"Spektral\",\n                \"Helix\",\n                \"Tesseract\",\n                \"Torus\",\n                \"Obelisk\"\n        ];\n\n        string[] private sizes = [\n                \"Nibble\",\n                \"Bite\",\n                \"Devour\"\n        ];\n\n        string[] private surfaces = [\n                \"hydro\",\n                \"plated\",\n                \"tactile\"\n        ];\n\n        string[] private colors = [\n                \"#E7434F\",\n                \"#E7973D\",\n                \"#E7DC4E\",\n                \"#5CE75D\",\n                \"#2981E7\", \n                \"#5D21E7\", \n                \"#E777E4\", \n                \"#E7E7E7\", \n                \"#312624\",\n                \"#E7969F\",\n                \"#E7B277\",\n                \"#E7DD8F\",\n                \"#8CE7C3\",\n                \"#87B2E7\",\n                \"#A082E7\",\n                \"#E4B7E7\"\n        ];\n\n        string public algorithm;\n\n        constructor() ERC721 (\"SWEETS\", \"SWEETS\") Ownable() {}       \n\n        function setAlgo(string memory algo) public onlyOwner {\n                algorithm = algo;\n        }\n\n        function mint(uint256 id) public nonReentrant {\n                require(id > 0 && id <= 4500);\n                _safeMint(msg.sender, id);\n        }\n\n        function ownerMint(uint256 id) public nonReentrant onlyOwner {\n                require(id > 4500  && id <= 5000);\n                _safeMint(msg.sender, id);\n        }\n\n        function rand(uint256 id, string memory trait, string[] memory values) internal pure returns (string memory) {\n                uint256 k = uint256(keccak256(abi.encodePacked(trait, toString(id))));\n                return values[k % values.length];\n        }\n\n        function getSize(uint256 id) public view returns (string memory) {\n                return rand(id, \"size\", sizes);\n        }\n\n        function getSurface(uint256 id) public view returns (string memory) {\n                return rand(id, \"shape\", sizes);\n        }\n\n        function getShape(uint256 id) public view returns (string memory) {\n                return rand(id, \"surface\", sizes);\n        }\n\n        function getPalette(uint256 id) public view returns (string[4] memory) {\n                string[4] memory palette;\n                palette[0] = rand(id, \"color 0\", colors);\n                palette[1] = rand(id, \"color 1\", colors);\n                palette[2] = rand(id, \"color 2\", colors);\n                palette[3] = rand(id, \"color 3\", colors);\n                return palette;\n        }\n\n        function toString(uint256 value) internal pure returns (string memory) {\n                if (value == 0) { return \"0\"; }\n                uint256 temp = value;\n                uint256 digits;\n                while (temp != 0) {\n                        digits++;\n                        temp /= 10;\n                }\n                bytes memory buffer = new bytes(digits);\n                while (value != 0) {\n                        digits -= 1;\n                        buffer[digits] = bytes1(uint8(48 + uint256(value % 10)));\n                        value /= 10;\n\n                }\n                return string(buffer);\n        }\n}\n",
  "sourcePath": "/Users/d/code/rove/SWEETS/contracts/SWEETS.sol",
  "compiler": {
    "name": "solc",
    "version": "0.8.17+commit.8df45f5f.Emscripten.clang"
  },
  "schemaVersion": "3.4.10",
  "updatedAt": "2022-11-01T00:55:17.022Z",
  "devdoc": {
    "kind": "dev",
    "methods": {
      "approve(address,uint256)": {
        "details": "See {IERC721-approve}."
      },
      "balanceOf(address)": {
        "details": "See {IERC721-balanceOf}."
      },
      "getApproved(uint256)": {
        "details": "See {IERC721-getApproved}."
      },
      "isApprovedForAll(address,address)": {
        "details": "See {IERC721-isApprovedForAll}."
      },
      "name()": {
        "details": "See {IERC721Metadata-name}."
      },
      "owner()": {
        "details": "Returns the address of the current owner."
      },
      "ownerOf(uint256)": {
        "details": "See {IERC721-ownerOf}."
      },
      "renounceOwnership()": {
        "details": "Leaves the contract without owner. It will not be possible to call `onlyOwner` functions anymore. Can only be called by the current owner. NOTE: Renouncing ownership will leave the contract without an owner, thereby removing any functionality that is only available to the owner."
      },
      "safeTransferFrom(address,address,uint256)": {
        "details": "See {IERC721-safeTransferFrom}."
      },
      "safeTransferFrom(address,address,uint256,bytes)": {
        "details": "See {IERC721-safeTransferFrom}."
      },
      "setApprovalForAll(address,bool)": {
        "details": "See {IERC721-setApprovalForAll}."
      },
      "supportsInterface(bytes4)": {
        "details": "See {IERC165-supportsInterface}."
      },
      "symbol()": {
        "details": "See {IERC721Metadata-symbol}."
      },
      "tokenURI(uint256)": {
        "details": "See {IERC721Metadata-tokenURI}."
      },
      "transferFrom(address,address,uint256)": {
        "details": "See {IERC721-transferFrom}."
      },
      "transferOwnership(address)": {
        "details": "Transfers ownership of the contract to a new account (`newOwner`). Can only be called by the current owner."
      }
    },
    "version": 1
  },
  "userdoc": {
    "kind": "user",
    "methods": {},
    "version": 1
  }
}